{
  "_format": "hh-sol-artifact-1",
  "contractName": "OxPantry",
  "sourceName": "contracts/0xPantry.sol",
  "abi": [
    {
      "inputs": [],
      "stateMutability": "nonpayable",
      "type": "constructor"
    },
    {
      "anonymous": false,
      "inputs": [
        {
          "indexed": false,
          "internalType": "address",
          "name": "adder",
          "type": "address"
        },
        {
          "indexed": false,
          "internalType": "address",
          "name": "newMod",
          "type": "address"
        }
      ],
      "name": "AssignMod",
      "type": "event"
    },
    {
      "anonymous": false,
      "inputs": [
        {
          "indexed": false,
          "internalType": "uint256",
          "name": "fileId",
          "type": "uint256"
        },
        {
          "indexed": false,
          "internalType": "string",
          "name": "fileHash",
          "type": "string"
        },
        {
          "indexed": false,
          "internalType": "string",
          "name": "fileSize",
          "type": "string"
        },
        {
          "indexed": false,
          "internalType": "string",
          "name": "fileType",
          "type": "string"
        },
        {
          "indexed": false,
          "internalType": "string",
          "name": "fileName",
          "type": "string"
        },
        {
          "indexed": false,
          "internalType": "string",
          "name": "fileDescription",
          "type": "string"
        },
        {
          "indexed": false,
          "internalType": "uint256",
          "name": "uploadTime",
          "type": "uint256"
        },
        {
          "indexed": false,
          "internalType": "address",
          "name": "uploader",
          "type": "address"
        },
        {
          "indexed": false,
          "internalType": "bool",
          "name": "isPublic",
          "type": "bool"
        }
      ],
      "name": "FileUploaded",
      "type": "event"
    },
    {
      "anonymous": false,
      "inputs": [
        {
          "indexed": false,
          "internalType": "address",
          "name": "account",
          "type": "address"
        }
      ],
      "name": "Paused",
      "type": "event"
    },
    {
      "anonymous": false,
      "inputs": [
        {
          "indexed": false,
          "internalType": "address",
          "name": "remover",
          "type": "address"
        },
        {
          "indexed": false,
          "internalType": "address",
          "name": "newMod",
          "type": "address"
        }
      ],
      "name": "RemoveMod",
      "type": "event"
    },
    {
      "anonymous": false,
      "inputs": [
        {
          "indexed": false,
          "internalType": "address",
          "name": "account",
          "type": "address"
        }
      ],
      "name": "Unpaused",
      "type": "event"
    },
    {
      "anonymous": false,
      "inputs": [
        {
          "indexed": false,
          "internalType": "address",
          "name": "addr",
          "type": "address"
        }
      ],
      "name": "addInBlackList",
      "type": "event"
    },
    {
      "anonymous": false,
      "inputs": [
        {
          "indexed": false,
          "internalType": "uint256",
          "name": "_itemIds",
          "type": "uint256"
        }
      ],
      "name": "madePrivate",
      "type": "event"
    },
    {
      "anonymous": false,
      "inputs": [
        {
          "indexed": false,
          "internalType": "uint256",
          "name": "_itemIds",
          "type": "uint256"
        }
      ],
      "name": "madePrivateMod",
      "type": "event"
    },
    {
      "anonymous": false,
      "inputs": [
        {
          "indexed": false,
          "internalType": "uint256",
          "name": "_itemIds",
          "type": "uint256"
        }
      ],
      "name": "madePublic",
      "type": "event"
    },
    {
      "anonymous": false,
      "inputs": [
        {
          "indexed": false,
          "internalType": "uint256",
          "name": "_itemIds",
          "type": "uint256"
        }
      ],
      "name": "newReport",
      "type": "event"
    },
    {
      "anonymous": false,
      "inputs": [
        {
          "indexed": false,
          "internalType": "address",
          "name": "addr",
          "type": "address"
        }
      ],
      "name": "remInBlackList",
      "type": "event"
    },
    {
      "anonymous": false,
      "inputs": [
        {
          "indexed": false,
          "internalType": "address",
          "name": "share_to",
          "type": "address"
        },
        {
          "indexed": false,
          "internalType": "address",
          "name": "shared_by",
          "type": "address"
        }
      ],
      "name": "sharedEvent",
      "type": "event"
    },
    {
      "inputs": [
        {
          "internalType": "uint256",
          "name": "",
          "type": "uint256"
        }
      ],
      "name": "Allfiles",
      "outputs": [
        {
          "internalType": "uint256",
          "name": "fileId",
          "type": "uint256"
        },
        {
          "internalType": "string",
          "name": "fileHash",
          "type": "string"
        },
        {
          "internalType": "string",
          "name": "fileSize",
          "type": "string"
        },
        {
          "internalType": "string",
          "name": "fileType",
          "type": "string"
        },
        {
          "internalType": "string",
          "name": "fileName",
          "type": "string"
        },
        {
          "internalType": "string",
          "name": "fileDescription",
          "type": "string"
        },
        {
          "internalType": "uint256",
          "name": "uploadTime",
          "type": "uint256"
        },
        {
          "internalType": "address",
          "name": "uploader",
          "type": "address"
        },
        {
          "internalType": "bool",
          "name": "isPublic",
          "type": "bool"
        }
      ],
      "stateMutability": "view",
      "type": "function"
    },
    {
      "inputs": [
        {
          "internalType": "address",
          "name": "_addr",
          "type": "address"
        }
      ],
      "name": "addToBlackList",
      "outputs": [
        {
          "internalType": "bool",
          "name": "",
          "type": "bool"
        }
      ],
      "stateMutability": "nonpayable",
      "type": "function"
    },
    {
      "inputs": [
        {
          "internalType": "uint256",
          "name": "",
          "type": "uint256"
        }
      ],
      "name": "allSharedFiles",
      "outputs": [
        {
          "internalType": "uint256",
          "name": "shareId",
          "type": "uint256"
        },
        {
          "internalType": "address",
          "name": "sender",
          "type": "address"
        },
        {
          "internalType": "address",
          "name": "receiver",
          "type": "address"
        },
        {
          "internalType": "string",
          "name": "shared_hash",
          "type": "string"
        },
        {
          "internalType": "string",
          "name": "fileName",
          "type": "string"
        },
        {
          "internalType": "string",
          "name": "fileType",
          "type": "string"
        }
      ],
      "stateMutability": "view",
      "type": "function"
    },
    {
      "inputs": [
        {
          "internalType": "address",
          "name": "_newMod",
          "type": "address"
        }
      ],
      "name": "assignMod",
      "outputs": [],
      "stateMutability": "nonpayable",
      "type": "function"
    },
    {
      "inputs": [
        {
          "internalType": "uint256",
          "name": "",
          "type": "uint256"
        }
      ],
      "name": "blackList",
      "outputs": [
        {
          "internalType": "address",
          "name": "",
          "type": "address"
        }
      ],
      "stateMutability": "view",
      "type": "function"
    },
    {
      "inputs": [],
      "name": "blackListArray",
      "outputs": [
        {
          "internalType": "address[]",
          "name": "",
          "type": "address[]"
        }
      ],
      "stateMutability": "view",
      "type": "function"
    },
    {
      "inputs": [
        {
          "internalType": "address",
          "name": "",
          "type": "address"
        }
      ],
      "name": "blackListedAddresses",
      "outputs": [
        {
          "internalType": "bool",
          "name": "",
          "type": "bool"
        }
      ],
      "stateMutability": "view",
      "type": "function"
    },
    {
      "inputs": [
        {
          "internalType": "address",
          "name": "_user",
          "type": "address"
        }
      ],
      "name": "checkMod",
      "outputs": [
        {
          "internalType": "bool",
          "name": "",
          "type": "bool"
        }
      ],
      "stateMutability": "view",
      "type": "function"
    },
    {
      "inputs": [
        {
          "internalType": "uint256",
          "name": "fileId",
          "type": "uint256"
        }
      ],
      "name": "clearReportedFiles",
      "outputs": [],
      "stateMutability": "nonpayable",
      "type": "function"
    },
    {
      "inputs": [],
      "name": "fetchPublicFiles",
      "outputs": [
        {
          "components": [
            {
              "internalType": "uint256",
              "name": "fileId",
              "type": "uint256"
            },
            {
              "internalType": "string",
              "name": "fileHash",
              "type": "string"
            },
            {
              "internalType": "string",
              "name": "fileSize",
              "type": "string"
            },
            {
              "internalType": "string",
              "name": "fileType",
              "type": "string"
            },
            {
              "internalType": "string",
              "name": "fileName",
              "type": "string"
            },
            {
              "internalType": "string",
              "name": "fileDescription",
              "type": "string"
            },
            {
              "internalType": "uint256",
              "name": "uploadTime",
              "type": "uint256"
            },
            {
              "internalType": "address",
              "name": "uploader",
              "type": "address"
            },
            {
              "internalType": "bool",
              "name": "isPublic",
              "type": "bool"
            }
          ],
          "internalType": "struct OxPantry.File[]",
          "name": "",
          "type": "tuple[]"
        }
      ],
      "stateMutability": "view",
      "type": "function"
    },
    {
      "inputs": [],
      "name": "fetchUserFiles",
      "outputs": [
        {
          "components": [
            {
              "internalType": "uint256",
              "name": "fileId",
              "type": "uint256"
            },
            {
              "internalType": "string",
              "name": "fileHash",
              "type": "string"
            },
            {
              "internalType": "string",
              "name": "fileSize",
              "type": "string"
            },
            {
              "internalType": "string",
              "name": "fileType",
              "type": "string"
            },
            {
              "internalType": "string",
              "name": "fileName",
              "type": "string"
            },
            {
              "internalType": "string",
              "name": "fileDescription",
              "type": "string"
            },
            {
              "internalType": "uint256",
              "name": "uploadTime",
              "type": "uint256"
            },
            {
              "internalType": "address",
              "name": "uploader",
              "type": "address"
            },
            {
              "internalType": "bool",
              "name": "isPublic",
              "type": "bool"
            }
          ],
          "internalType": "struct OxPantry.File[]",
          "name": "",
          "type": "tuple[]"
        }
      ],
      "stateMutability": "view",
      "type": "function"
    },
    {
      "inputs": [],
      "name": "getSharedFiles",
      "outputs": [
        {
          "components": [
            {
              "internalType": "uint256",
              "name": "shareId",
              "type": "uint256"
            },
            {
              "internalType": "address",
              "name": "sender",
              "type": "address"
            },
            {
              "internalType": "address",
              "name": "receiver",
              "type": "address"
            },
            {
              "internalType": "string",
              "name": "shared_hash",
              "type": "string"
            },
            {
              "internalType": "string",
              "name": "fileName",
              "type": "string"
            },
            {
              "internalType": "string",
              "name": "fileType",
              "type": "string"
            }
          ],
          "internalType": "struct OxPantry.SharedFile[]",
          "name": "",
          "type": "tuple[]"
        }
      ],
      "stateMutability": "view",
      "type": "function"
    },
    {
      "inputs": [
        {
          "internalType": "uint256",
          "name": "fileId",
          "type": "uint256"
        }
      ],
      "name": "makeFilePrivate",
      "outputs": [],
      "stateMutability": "nonpayable",
      "type": "function"
    },
    {
      "inputs": [
        {
          "internalType": "uint256",
          "name": "fileId",
          "type": "uint256"
        }
      ],
      "name": "makeFilePublic",
      "outputs": [],
      "stateMutability": "nonpayable",
      "type": "function"
    },
    {
      "inputs": [
        {
          "internalType": "uint256",
          "name": "fileId",
          "type": "uint256"
        }
      ],
      "name": "makeReportedPrivate",
      "outputs": [],
      "stateMutability": "nonpayable",
      "type": "function"
    },
    {
      "inputs": [
        {
          "internalType": "address",
          "name": "",
          "type": "address"
        }
      ],
      "name": "moderator",
      "outputs": [
        {
          "internalType": "bool",
          "name": "",
          "type": "bool"
        }
      ],
      "stateMutability": "view",
      "type": "function"
    },
    {
      "inputs": [],
      "name": "pause",
      "outputs": [],
      "stateMutability": "nonpayable",
      "type": "function"
    },
    {
      "inputs": [],
      "name": "paused",
      "outputs": [
        {
          "internalType": "bool",
          "name": "",
          "type": "bool"
        }
      ],
      "stateMutability": "view",
      "type": "function"
    },
    {
      "inputs": [
        {
          "internalType": "address",
          "name": "_addr",
          "type": "address"
        }
      ],
      "name": "removeFromBlackList",
      "outputs": [
        {
          "internalType": "bool",
          "name": "",
          "type": "bool"
        }
      ],
      "stateMutability": "nonpayable",
      "type": "function"
    },
    {
      "inputs": [
        {
          "internalType": "address",
          "name": "_mod",
          "type": "address"
        }
      ],
      "name": "removeMod",
      "outputs": [],
      "stateMutability": "nonpayable",
      "type": "function"
    },
    {
      "inputs": [
        {
          "internalType": "uint256",
          "name": "fileId",
          "type": "uint256"
        }
      ],
      "name": "report",
      "outputs": [],
      "stateMutability": "nonpayable",
      "type": "function"
    },
    {
      "inputs": [
        {
          "internalType": "uint256",
          "name": "",
          "type": "uint256"
        }
      ],
      "name": "reportExist",
      "outputs": [
        {
          "internalType": "bool",
          "name": "",
          "type": "bool"
        }
      ],
      "stateMutability": "view",
      "type": "function"
    },
    {
      "inputs": [
        {
          "internalType": "uint256",
          "name": "",
          "type": "uint256"
        }
      ],
      "name": "reportedFiles",
      "outputs": [
        {
          "internalType": "uint256",
          "name": "",
          "type": "uint256"
        }
      ],
      "stateMutability": "view",
      "type": "function"
    },
    {
      "inputs": [],
      "name": "reportedListArray",
      "outputs": [
        {
          "internalType": "uint256[]",
          "name": "",
          "type": "uint256[]"
        }
      ],
      "stateMutability": "view",
      "type": "function"
    },
    {
      "inputs": [
        {
          "internalType": "uint256",
          "name": "_fileId",
          "type": "uint256"
        },
        {
          "internalType": "address[]",
          "name": "_receivers",
          "type": "address[]"
        }
      ],
      "name": "shareFile",
      "outputs": [],
      "stateMutability": "nonpayable",
      "type": "function"
    },
    {
      "inputs": [],
      "name": "unpause",
      "outputs": [],
      "stateMutability": "nonpayable",
      "type": "function"
    },
    {
      "inputs": [
        {
          "internalType": "string",
          "name": "_fileHash",
          "type": "string"
        },
        {
          "internalType": "string",
          "name": "_fileSize",
          "type": "string"
        },
        {
          "internalType": "string",
          "name": "_fileType",
          "type": "string"
        },
        {
          "internalType": "string",
          "name": "_fileName",
          "type": "string"
        },
        {
          "internalType": "string",
          "name": "_fileDescription",
          "type": "string"
        },
        {
          "internalType": "bool",
          "name": "_isPublic",
          "type": "bool"
        }
      ],
      "name": "uploadFile",
      "outputs": [],
      "stateMutability": "nonpayable",
      "type": "function"
    }
  ],
  "bytecode": "0x608060405234801561001057600080fd5b5060008060006101000a81548160ff0219169083151502179055506001600460003373ffffffffffffffffffffffffffffffffffffffff1673ffffffffffffffffffffffffffffffffffffffff16815260200190815260200160002060006101000a81548160ff0219169083151502179055506152b3806100926000396000f3fe608060405234801561001057600080fd5b50600436106101a85760003560e01c8063914e3144116100f9578063b1bed4f511610097578063cfce5c4611610071578063cfce5c46146104d8578063d13d9e9c146104f6578063d1b6961e14610512578063f54dc7571461052e576101a8565b8063b1bed4f514610470578063b27e237c146104a0578063cccd26c8146104bc576101a8565b80639a66b923116100d35780639a66b923146103d65780639b569074146103f2578063a47aacec14610422578063a8b23dbc14610452576101a8565b8063914e314414610364578063969b1cdb14610382578063972a92b91461039e576101a8565b80635a2fd58b11610166578063709ec8b411610140578063709ec8b4146102d95780637bf7e5c61461030957806382d0ed2e1461033e5780638456cb591461035a576101a8565b80635a2fd58b1461026d5780635c975abb1461028b57806364f2f7a4146102a9576101a8565b8062e17ba0146101ad57806331d1f185146101c95780633f4ba83a146101e7578063417c73a7146101f15780634637de3c146102215780634a49ac4c1461023d575b600080fd5b6101c760048036038101906101c29190614194565b61055e565b005b6101d161063c565b6040516101de9190614861565b60405180910390f35b6101ef610cec565b005b61020b6004803603810190610206919061406a565b610d8a565b60405161021891906148c7565b60405180910390f35b61023b6004803603810190610236919061406a565b610f1b565b005b6102576004803603810190610252919061406a565b61108b565b60405161026491906148c7565b60405180910390f35b610275611363565b60405161028291906148a5565b60405180910390f35b61029361144f565b6040516102a091906148c7565b60405180910390f35b6102c360048036038101906102be919061406a565b611465565b6040516102d091906148c7565b60405180910390f35b6102f360048036038101906102ee9190614194565b611509565b60405161030091906147fb565b60405180910390f35b610323600480360381019061031e9190614194565b611548565b60405161033596959493929190614a7d565b60405180910390f35b61035860048036038101906103539190614194565b61175c565b005b61036261194e565b005b61036c6119ec565b6040516103799190614883565b60405180910390f35b61039c60048036038101906103979190614194565b611e6d565b005b6103b860048036038101906103b39190614194565b611f63565b6040516103cd99989796959493929190614af3565b60405180910390f35b6103f060048036038101906103eb9190614194565b612286565b005b61040c60048036038101906104079190614194565b6124df565b6040516104199190614a62565b60405180910390f35b61043c60048036038101906104379190614194565b612503565b60405161044991906148c7565b60405180910390f35b61045a612523565b6040516104679190614861565b60405180910390f35b61048a6004803603810190610485919061406a565b612b14565b60405161049791906148c7565b60405180910390f35b6104ba60048036038101906104b5919061406a565b612b34565b005b6104d660048036038101906104d191906141bd565b612ca4565b005b6104e06134c7565b6040516104ed919061483f565b60405180910390f35b610510600480360381019061050b9190614093565b6135e9565b005b61052c60048036038101906105279190614194565b613928565b005b6105486004803603810190610543919061406a565b613c60565b60405161055591906148c7565b60405180910390f35b336000600460008373ffffffffffffffffffffffffffffffffffffffff1673ffffffffffffffffffffffffffffffffffffffff16815260200190815260200160002060009054906101000a900460ff169050806105f0576040517f08c379a00000000000000000000000000000000000000000000000000000000081526004016105e790614a02565b60405180910390fd5b60006005600085815260200190815260200160002060070160146101000a81548160ff0219169083151502179055506106296002613c80565b600a60006106379190613def565b505050565b606061064661144f565b15610686576040517f08c379a000000000000000000000000000000000000000000000000000000000815260040161067d90614962565b60405180910390fd5b60001515600660003373ffffffffffffffffffffffffffffffffffffffff1673ffffffffffffffffffffffffffffffffffffffff16815260200190815260200160002060009054906101000a900460ff16151514610719576040517f08c379a000000000000000000000000000000000000000000000000000000000815260040161071090614a42565b60405180910390fd5b60006107256001613c96565b905060008060005b838110156107ce573373ffffffffffffffffffffffffffffffffffffffff166005600060018461075d9190614d0a565b815260200190815260200160002060070160009054906101000a900473ffffffffffffffffffffffffffffffffffffffff1673ffffffffffffffffffffffffffffffffffffffff1614156107bb576001836107b89190614d0a565b92505b80806107c690614e81565b91505061072d565b5060008267ffffffffffffffff811115610811577f4e487b7100000000000000000000000000000000000000000000000000000000600052604160045260246000fd5b60405190808252806020026020018201604052801561084a57816020015b610837613e10565b81526020019060019003908161082f5790505b50905060005b84811015610ce1573373ffffffffffffffffffffffffffffffffffffffff16600560006001846108809190614d0a565b815260200190815260200160002060070160009054906101000a900473ffffffffffffffffffffffffffffffffffffffff1673ffffffffffffffffffffffffffffffffffffffff161415610cce576000600560006001846108e19190614d0a565b8152602001908152602001600020600001549050600060056000838152602001908152602001600020905080604051806101200160405290816000820154815260200160018201805461093390614e1e565b80601f016020809104026020016040519081016040528092919081815260200182805461095f90614e1e565b80156109ac5780601f10610981576101008083540402835291602001916109ac565b820191906000526020600020905b81548152906001019060200180831161098f57829003601f168201915b505050505081526020016002820180546109c590614e1e565b80601f01602080910402602001604051908101604052809291908181526020018280546109f190614e1e565b8015610a3e5780601f10610a1357610100808354040283529160200191610a3e565b820191906000526020600020905b815481529060010190602001808311610a2157829003601f168201915b50505050508152602001600382018054610a5790614e1e565b80601f0160208091040260200160405190810160405280929190818152602001828054610a8390614e1e565b8015610ad05780601f10610aa557610100808354040283529160200191610ad0565b820191906000526020600020905b815481529060010190602001808311610ab357829003601f168201915b50505050508152602001600482018054610ae990614e1e565b80601f0160208091040260200160405190810160405280929190818152602001828054610b1590614e1e565b8015610b625780601f10610b3757610100808354040283529160200191610b62565b820191906000526020600020905b815481529060010190602001808311610b4557829003601f168201915b50505050508152602001600582018054610b7b90614e1e565b80601f0160208091040260200160405190810160405280929190818152602001828054610ba790614e1e565b8015610bf45780601f10610bc957610100808354040283529160200191610bf4565b820191906000526020600020905b815481529060010190602001808311610bd757829003601f168201915b50505050508152602001600682015481526020016007820160009054906101000a900473ffffffffffffffffffffffffffffffffffffffff1673ffffffffffffffffffffffffffffffffffffffff1673ffffffffffffffffffffffffffffffffffffffff1681526020016007820160149054906101000a900460ff161515151581525050848681518110610cb1577f4e487b7100000000000000000000000000000000000000000000000000000000600052603260045260246000fd5b6020026020010181905250600185610cc99190614d0a565b945050505b8080610cd990614e81565b915050610850565b508094505050505090565b336000600460008373ffffffffffffffffffffffffffffffffffffffff1673ffffffffffffffffffffffffffffffffffffffff16815260200190815260200160002060009054906101000a900460ff16905080610d7e576040517f08c379a0000000000000000000000000000000000000000000000000000000008152600401610d7590614a02565b60405180910390fd5b610d86613ca4565b5050565b6000336000600460008373ffffffffffffffffffffffffffffffffffffffff1673ffffffffffffffffffffffffffffffffffffffff16815260200190815260200160002060009054906101000a900460ff16905080610e1e576040517f08c379a0000000000000000000000000000000000000000000000000000000008152600401610e1590614a02565b60405180910390fd5b6001600660008673ffffffffffffffffffffffffffffffffffffffff1673ffffffffffffffffffffffffffffffffffffffff16815260200190815260200160002060006101000a81548160ff0219169083151502179055506008849080600181540180825580915050600190039060005260206000200160009091909190916101000a81548173ffffffffffffffffffffffffffffffffffffffff021916908373ffffffffffffffffffffffffffffffffffffffff1602179055507f2baa715fcf00d01553d31801d54d8f0cdfed5dfd3de24bf24c49281cd165439784604051610f0891906147fb565b60405180910390a1600192505050919050565b610f2361144f565b15610f63576040517f08c379a0000000000000000000000000000000000000000000000000000000008152600401610f5a90614962565b60405180910390fd5b336000600460008373ffffffffffffffffffffffffffffffffffffffff1673ffffffffffffffffffffffffffffffffffffffff16815260200190815260200160002060009054906101000a900460ff16905080610ff5576040517f08c379a0000000000000000000000000000000000000000000000000000000008152600401610fec90614a02565b60405180910390fd5b6000600460008573ffffffffffffffffffffffffffffffffffffffff1673ffffffffffffffffffffffffffffffffffffffff16815260200190815260200160002060006101000a81548160ff0219169083151502179055507f21e8741435b5373014087a70641e17e7139c8f3ecffbc070c83ca921e5f06ab5338460405161107e929190614816565b60405180910390a1505050565b6000336000600460008373ffffffffffffffffffffffffffffffffffffffff1673ffffffffffffffffffffffffffffffffffffffff16815260200190815260200160002060009054906101000a900460ff1690508061111f576040517f08c379a000000000000000000000000000000000000000000000000000000000815260040161111690614a02565b60405180910390fd5b6000600960008673ffffffffffffffffffffffffffffffffffffffff1673ffffffffffffffffffffffffffffffffffffffff168152602001908152602001600020549050600860016008805490506111779190614d60565b815481106111ae577f4e487b7100000000000000000000000000000000000000000000000000000000600052603260045260246000fd5b9060005260206000200160009054906101000a900473ffffffffffffffffffffffffffffffffffffffff1660088281548110611213577f4e487b7100000000000000000000000000000000000000000000000000000000600052603260045260246000fd5b9060005260206000200160006101000a81548173ffffffffffffffffffffffffffffffffffffffff021916908373ffffffffffffffffffffffffffffffffffffffff1602179055506008805480611293577f4e487b7100000000000000000000000000000000000000000000000000000000600052603160045260246000fd5b6001900381819060005260206000200160006101000a81549073ffffffffffffffffffffffffffffffffffffffff021916905590556000600660008773ffffffffffffffffffffffffffffffffffffffff1673ffffffffffffffffffffffffffffffffffffffff16815260200190815260200160002060006101000a81548160ff0219169083151502179055507f92e933ae15bd6223e7a81ec3233d4252ded2d20b856dd551c95447ffad396df08560405161134f91906147fb565b60405180910390a160019350505050919050565b6060336000600460008373ffffffffffffffffffffffffffffffffffffffff1673ffffffffffffffffffffffffffffffffffffffff16815260200190815260200160002060009054906101000a900460ff169050806113f7576040517f08c379a00000000000000000000000000000000000000000000000000000000081526004016113ee90614a02565b60405180910390fd5b600a80548060200260200160405190810160405280929190818152602001828054801561144357602002820191906000526020600020905b81548152602001906001019080831161142f575b50505050509250505090565b60008060009054906101000a900460ff16905090565b600061146f61144f565b156114af576040517f08c379a00000000000000000000000000000000000000000000000000000000081526004016114a690614962565b60405180910390fd5b6000600460008473ffffffffffffffffffffffffffffffffffffffff1673ffffffffffffffffffffffffffffffffffffffff16815260200190815260200160002060009054906101000a900460ff16905080915050919050565b6008818154811061151957600080fd5b906000526020600020016000915054906101000a900473ffffffffffffffffffffffffffffffffffffffff1681565b60076020528060005260406000206000915090508060000154908060010160009054906101000a900473ffffffffffffffffffffffffffffffffffffffff16908060020160009054906101000a900473ffffffffffffffffffffffffffffffffffffffff16908060030180546115bd90614e1e565b80601f01602080910402602001604051908101604052809291908181526020018280546115e990614e1e565b80156116365780601f1061160b57610100808354040283529160200191611636565b820191906000526020600020905b81548152906001019060200180831161161957829003601f168201915b50505050509080600401805461164b90614e1e565b80601f016020809104026020016040519081016040528092919081815260200182805461167790614e1e565b80156116c45780601f10611699576101008083540402835291602001916116c4565b820191906000526020600020905b8154815290600101906020018083116116a757829003601f168201915b5050505050908060050180546116d990614e1e565b80601f016020809104026020016040519081016040528092919081815260200182805461170590614e1e565b80156117525780601f1061172757610100808354040283529160200191611752565b820191906000526020600020905b81548152906001019060200180831161173557829003601f168201915b5050505050905086565b61176461144f565b156117a4576040517f08c379a000000000000000000000000000000000000000000000000000000000815260040161179b90614962565b60405180910390fd5b60001515600660003373ffffffffffffffffffffffffffffffffffffffff1673ffffffffffffffffffffffffffffffffffffffff16815260200190815260200160002060009054906101000a900460ff16151514611837576040517f08c379a000000000000000000000000000000000000000000000000000000000815260040161182e90614a42565b60405180910390fd5b3373ffffffffffffffffffffffffffffffffffffffff166005600083815260200190815260200160002060070160009054906101000a900473ffffffffffffffffffffffffffffffffffffffff1673ffffffffffffffffffffffffffffffffffffffff16146118db576040517f08c379a00000000000000000000000000000000000000000000000000000000081526004016118d290614a22565b60405180910390fd5b60006005600083815260200190815260200160002060070160146101000a81548160ff0219169083151502179055506119146002613c80565b7f3a9eaa6e68e81601b859b65d082cbf189fb7325635f4e1fb5cb1f19dc665508f816040516119439190614a62565b60405180910390a150565b336000600460008373ffffffffffffffffffffffffffffffffffffffff1673ffffffffffffffffffffffffffffffffffffffff16815260200190815260200160002060009054906101000a900460ff169050806119e0576040517f08c379a00000000000000000000000000000000000000000000000000000000081526004016119d790614a02565b60405180910390fd5b6119e8613d45565b5050565b60606119f661144f565b15611a36576040517f08c379a0000000000000000000000000000000000000000000000000000000008152600401611a2d90614962565b60405180910390fd5b6000611a426003613c96565b90506000808267ffffffffffffffff811115611a87577f4e487b7100000000000000000000000000000000000000000000000000000000600052604160045260246000fd5b604051908082528060200260200182016040528015611ac057816020015b611aad613e74565b815260200190600190039081611aa55790505b50905060005b83811015611e63573373ffffffffffffffffffffffffffffffffffffffff1660076000600184611af69190614d0a565b815260200190815260200160002060020160009054906101000a900473ffffffffffffffffffffffffffffffffffffffff1673ffffffffffffffffffffffffffffffffffffffff161415611e5057600060076000600184611b579190614d0a565b81526020019081526020016000206000015490506000600760008381526020019081526020016000209050806040518060c0016040529081600082015481526020016001820160009054906101000a900473ffffffffffffffffffffffffffffffffffffffff1673ffffffffffffffffffffffffffffffffffffffff1673ffffffffffffffffffffffffffffffffffffffff1681526020016002820160009054906101000a900473ffffffffffffffffffffffffffffffffffffffff1673ffffffffffffffffffffffffffffffffffffffff1673ffffffffffffffffffffffffffffffffffffffff168152602001600382018054611c5490614e1e565b80601f0160208091040260200160405190810160405280929190818152602001828054611c8090614e1e565b8015611ccd5780601f10611ca257610100808354040283529160200191611ccd565b820191906000526020600020905b815481529060010190602001808311611cb057829003601f168201915b50505050508152602001600482018054611ce690614e1e565b80601f0160208091040260200160405190810160405280929190818152602001828054611d1290614e1e565b8015611d5f5780601f10611d3457610100808354040283529160200191611d5f565b820191906000526020600020905b815481529060010190602001808311611d4257829003601f168201915b50505050508152602001600582018054611d7890614e1e565b80601f0160208091040260200160405190810160405280929190818152602001828054611da490614e1e565b8015611df15780601f10611dc657610100808354040283529160200191611df1565b820191906000526020600020905b815481529060010190602001808311611dd457829003601f168201915b505050505081525050848681518110611e33577f4e487b7100000000000000000000000000000000000000000000000000000000600052603260045260246000fd5b6020026020010181905250600185611e4b9190614d0a565b945050505b8080611e5b90614e81565b915050611ac6565b5080935050505090565b60001515600c600083815260200190815260200160002060009054906101000a900460ff16151514611ed4576040517f08c379a0000000000000000000000000000000000000000000000000000000008152600401611ecb906149e2565b60405180910390fd5b6001600c600083815260200190815260200160002060006101000a81548160ff021916908315150217905550600a8190806001815401808255809150506001900390600052602060002001600090919091909150557fe62739fed49de5f6dec72a75ea57f95e1f62f266372cab8e93e8fca8f5ab950481604051611f589190614a62565b60405180910390a150565b6005602052806000526040600020600091509050806000015490806001018054611f8c90614e1e565b80601f0160208091040260200160405190810160405280929190818152602001828054611fb890614e1e565b80156120055780601f10611fda57610100808354040283529160200191612005565b820191906000526020600020905b815481529060010190602001808311611fe857829003601f168201915b50505050509080600201805461201a90614e1e565b80601f016020809104026020016040519081016040528092919081815260200182805461204690614e1e565b80156120935780601f1061206857610100808354040283529160200191612093565b820191906000526020600020905b81548152906001019060200180831161207657829003601f168201915b5050505050908060030180546120a890614e1e565b80601f01602080910402602001604051908101604052809291908181526020018280546120d490614e1e565b80156121215780601f106120f657610100808354040283529160200191612121565b820191906000526020600020905b81548152906001019060200180831161210457829003601f168201915b50505050509080600401805461213690614e1e565b80601f016020809104026020016040519081016040528092919081815260200182805461216290614e1e565b80156121af5780601f10612184576101008083540402835291602001916121af565b820191906000526020600020905b81548152906001019060200180831161219257829003601f168201915b5050505050908060050180546121c490614e1e565b80601f01602080910402602001604051908101604052809291908181526020018280546121f090614e1e565b801561223d5780601f106122125761010080835404028352916020019161223d565b820191906000526020600020905b81548152906001019060200180831161222057829003601f168201915b5050505050908060060154908060070160009054906101000a900473ffffffffffffffffffffffffffffffffffffffff16908060070160149054906101000a900460ff16905089565b61228e61144f565b156122ce576040517f08c379a00000000000000000000000000000000000000000000000000000000081526004016122c590614962565b60405180910390fd5b60001515600660003373ffffffffffffffffffffffffffffffffffffffff1673ffffffffffffffffffffffffffffffffffffffff16815260200190815260200160002060009054906101000a900460ff16151514612361576040517f08c379a000000000000000000000000000000000000000000000000000000000815260040161235890614a42565b60405180910390fd5b3373ffffffffffffffffffffffffffffffffffffffff166005600083815260200190815260200160002060070160009054906101000a900473ffffffffffffffffffffffffffffffffffffffff1673ffffffffffffffffffffffffffffffffffffffff1614612405576040517f08c379a00000000000000000000000000000000000000000000000000000000081526004016123fc90614a22565b60405180910390fd5b60001515600c600083815260200190815260200160002060009054906101000a900460ff1615151461246c576040517f08c379a0000000000000000000000000000000000000000000000000000000008152600401612463906149a2565b60405180910390fd5b60016005600083815260200190815260200160002060070160146101000a81548160ff0219169083151502179055506124a56001613c80565b7f211c9fd4b950d899ffbafc9f17e0ea27aec103b4381f4e094ba54b34af3f7304816040516124d49190614a62565b60405180910390a150565b600a81815481106124ef57600080fd5b906000526020600020016000915090505481565b600c6020528060005260406000206000915054906101000a900460ff1681565b606061252d61144f565b1561256d576040517f08c379a000000000000000000000000000000000000000000000000000000000815260040161256490614962565b60405180910390fd5b60001515600660003373ffffffffffffffffffffffffffffffffffffffff1673ffffffffffffffffffffffffffffffffffffffff16815260200190815260200160002060009054906101000a900460ff16151514612600576040517f08c379a00000000000000000000000000000000000000000000000000000000081526004016125f790614a42565b60405180910390fd5b600061260c6001613c96565b9050600061261a6002613c96565b6126246001613c96565b61262e9190614d60565b90506000808267ffffffffffffffff811115612673577f4e487b7100000000000000000000000000000000000000000000000000000000600052604160045260246000fd5b6040519080825280602002602001820160405280156126ac57816020015b612699613e10565b8152602001906001900390816126915790505b50905060005b84811015612b095760011515600560006001846126cf9190614d0a565b815260200190815260200160002060070160149054906101000a900460ff1615151415612af6576000600560006001846127099190614d0a565b8152602001908152602001600020600001549050600060056000838152602001908152602001600020905080604051806101200160405290816000820154815260200160018201805461275b90614e1e565b80601f016020809104026020016040519081016040528092919081815260200182805461278790614e1e565b80156127d45780601f106127a9576101008083540402835291602001916127d4565b820191906000526020600020905b8154815290600101906020018083116127b757829003601f168201915b505050505081526020016002820180546127ed90614e1e565b80601f016020809104026020016040519081016040528092919081815260200182805461281990614e1e565b80156128665780601f1061283b57610100808354040283529160200191612866565b820191906000526020600020905b81548152906001019060200180831161284957829003601f168201915b5050505050815260200160038201805461287f90614e1e565b80601f01602080910402602001604051908101604052809291908181526020018280546128ab90614e1e565b80156128f85780601f106128cd576101008083540402835291602001916128f8565b820191906000526020600020905b8154815290600101906020018083116128db57829003601f168201915b5050505050815260200160048201805461291190614e1e565b80601f016020809104026020016040519081016040528092919081815260200182805461293d90614e1e565b801561298a5780601f1061295f5761010080835404028352916020019161298a565b820191906000526020600020905b81548152906001019060200180831161296d57829003601f168201915b505050505081526020016005820180546129a390614e1e565b80601f01602080910402602001604051908101604052809291908181526020018280546129cf90614e1e565b8015612a1c5780601f106129f157610100808354040283529160200191612a1c565b820191906000526020600020905b8154815290600101906020018083116129ff57829003601f168201915b50505050508152602001600682015481526020016007820160009054906101000a900473ffffffffffffffffffffffffffffffffffffffff1673ffffffffffffffffffffffffffffffffffffffff1673ffffffffffffffffffffffffffffffffffffffff1681526020016007820160149054906101000a900460ff161515151581525050848681518110612ad9577f4e487b7100000000000000000000000000000000000000000000000000000000600052603260045260246000fd5b6020026020010181905250600185612af19190614d0a565b945050505b8080612b0190614e81565b9150506126b2565b508094505050505090565b60046020528060005260406000206000915054906101000a900460ff1681565b612b3c61144f565b15612b7c576040517f08c379a0000000000000000000000000000000000000000000000000000000008152600401612b7390614962565b60405180910390fd5b336000600460008373ffffffffffffffffffffffffffffffffffffffff1673ffffffffffffffffffffffffffffffffffffffff16815260200190815260200160002060009054906101000a900460ff16905080612c0e576040517f08c379a0000000000000000000000000000000000000000000000000000000008152600401612c0590614a02565b60405180910390fd5b6001600460008573ffffffffffffffffffffffffffffffffffffffff1673ffffffffffffffffffffffffffffffffffffffff16815260200190815260200160002060006101000a81548160ff0219169083151502179055507fb5dd25a9cfca5e08f42d8aa38af875754ee83968a096a48442d6af229d64de653384604051612c97929190614816565b60405180910390a1505050565b612cac61144f565b15612cec576040517f08c379a0000000000000000000000000000000000000000000000000000000008152600401612ce390614962565b60405180910390fd5b60001515600660003373ffffffffffffffffffffffffffffffffffffffff1673ffffffffffffffffffffffffffffffffffffffff16815260200190815260200160002060009054906101000a900460ff16151514612d7f576040517f08c379a0000000000000000000000000000000000000000000000000000000008152600401612d7690614a42565b60405180910390fd5b3373ffffffffffffffffffffffffffffffffffffffff166005600085815260200190815260200160002060070160009054906101000a900473ffffffffffffffffffffffffffffffffffffffff1673ffffffffffffffffffffffffffffffffffffffff1614612e23576040517f08c379a0000000000000000000000000000000000000000000000000000000008152600401612e1a90614942565b60405180910390fd5b60005b828290508110156134c157600073ffffffffffffffffffffffffffffffffffffffff16838383818110612e82577f4e487b7100000000000000000000000000000000000000000000000000000000600052603260045260246000fd5b9050602002016020810190612e97919061406a565b73ffffffffffffffffffffffffffffffffffffffff161415612eee576040517f08c379a0000000000000000000000000000000000000000000000000000000008152600401612ee590614982565b60405180910390fd5b3373ffffffffffffffffffffffffffffffffffffffff16838383818110612f3e577f4e487b7100000000000000000000000000000000000000000000000000000000600052603260045260246000fd5b9050602002016020810190612f53919061406a565b73ffffffffffffffffffffffffffffffffffffffff161415612faa576040517f08c379a0000000000000000000000000000000000000000000000000000000008152600401612fa1906149c2565b60405180910390fd5b6000151560066000858585818110612feb577f4e487b7100000000000000000000000000000000000000000000000000000000600052603260045260246000fd5b9050602002016020810190613000919061406a565b73ffffffffffffffffffffffffffffffffffffffff1673ffffffffffffffffffffffffffffffffffffffff16815260200190815260200160002060009054906101000a900460ff1615151461308a576040517f08c379a000000000000000000000000000000000000000000000000000000000815260040161308190614922565b60405180910390fd5b6130946003613c80565b60006130a06003613c96565b90506040518060c001604052808281526020013373ffffffffffffffffffffffffffffffffffffffff168152602001858585818110613108577f4e487b7100000000000000000000000000000000000000000000000000000000600052603260045260246000fd5b905060200201602081019061311d919061406a565b73ffffffffffffffffffffffffffffffffffffffff16815260200160056000888152602001908152602001600020600101805461315990614e1e565b80601f016020809104026020016040519081016040528092919081815260200182805461318590614e1e565b80156131d25780601f106131a7576101008083540402835291602001916131d2565b820191906000526020600020905b8154815290600101906020018083116131b557829003601f168201915b505050505081526020016005600088815260200190815260200160002060040180546131fd90614e1e565b80601f016020809104026020016040519081016040528092919081815260200182805461322990614e1e565b80156132765780601f1061324b57610100808354040283529160200191613276565b820191906000526020600020905b81548152906001019060200180831161325957829003601f168201915b505050505081526020016005600088815260200190815260200160002060030180546132a190614e1e565b80601f01602080910402602001604051908101604052809291908181526020018280546132cd90614e1e565b801561331a5780601f106132ef5761010080835404028352916020019161331a565b820191906000526020600020905b8154815290600101906020018083116132fd57829003601f168201915b5050505050815250600760008381526020019081526020016000206000820151816000015560208201518160010160006101000a81548173ffffffffffffffffffffffffffffffffffffffff021916908373ffffffffffffffffffffffffffffffffffffffff16021790555060408201518160020160006101000a81548173ffffffffffffffffffffffffffffffffffffffff021916908373ffffffffffffffffffffffffffffffffffffffff16021790555060608201518160030190805190602001906133e9929190613ed6565b506080820151816004019080519060200190613406929190613ed6565b5060a0820151816005019080519060200190613423929190613ed6565b509050507f54a7e7328fda5f18db5c21fd8f0cf70f75f525da71a42f7fd51cd77094219b37848484818110613481577f4e487b7100000000000000000000000000000000000000000000000000000000600052603260045260246000fd5b9050602002016020810190613496919061406a565b336040516134a5929190614816565b60405180910390a15080806134b990614e81565b915050612e26565b50505050565b6060336000600460008373ffffffffffffffffffffffffffffffffffffffff1673ffffffffffffffffffffffffffffffffffffffff16815260200190815260200160002060009054906101000a900460ff1690508061355b576040517f08c379a000000000000000000000000000000000000000000000000000000000815260040161355290614a02565b60405180910390fd5b60088054806020026020016040519081016040528092919081815260200182805480156135dd57602002820191906000526020600020905b8160009054906101000a900473ffffffffffffffffffffffffffffffffffffffff1673ffffffffffffffffffffffffffffffffffffffff1681526020019060010190808311613593575b50505050509250505090565b6135f161144f565b15613631576040517f08c379a000000000000000000000000000000000000000000000000000000000815260040161362890614962565b60405180910390fd5b60001515600660003373ffffffffffffffffffffffffffffffffffffffff1673ffffffffffffffffffffffffffffffffffffffff16815260200190815260200160002060009054906101000a900460ff161515146136c4576040517f08c379a00000000000000000000000000000000000000000000000000000000081526004016136bb90614a42565b60405180910390fd5b60008651116136d257600080fd5b60008451116136e057600080fd5b60008251116136ee57600080fd5b60008351116136fc57600080fd5b600073ffffffffffffffffffffffffffffffffffffffff163373ffffffffffffffffffffffffffffffffffffffff16141561373657600080fd5b600085511161374457600080fd5b61374e6001613c80565b600061375a6001613c96565b90506040518061012001604052808281526020018881526020018781526020018681526020018581526020018481526020014281526020013373ffffffffffffffffffffffffffffffffffffffff16815260200160001515815250600560008381526020019081526020016000206000820151816000015560208201518160010190805190602001906137ee929190613ed6565b50604082015181600201908051906020019061380b929190613ed6565b506060820151816003019080519060200190613828929190613ed6565b506080820151816004019080519060200190613845929190613ed6565b5060a0820151816005019080519060200190613862929190613ed6565b5060c0820151816006015560e08201518160070160006101000a81548173ffffffffffffffffffffffffffffffffffffffff021916908373ffffffffffffffffffffffffffffffffffffffff1602179055506101008201518160070160146101000a81548160ff0219169083151502179055509050507f15685dbf79e7181ae33d4610b737556e08e88cd73cd97d994292e1699d09d0f381888888888842338a60405161391799989796959493929190614af3565b60405180910390a150505050505050565b61393061144f565b15613970576040517f08c379a000000000000000000000000000000000000000000000000000000000815260040161396790614962565b60405180910390fd5b600460003373ffffffffffffffffffffffffffffffffffffffff1673ffffffffffffffffffffffffffffffffffffffff16815260200190815260200160002060009054906101000a900460ff166139fc576040517f08c379a00000000000000000000000000000000000000000000000000000000081526004016139f3906148e2565b60405180910390fd5b60006005600083815260200190815260200160002060070160146101000a81548160ff0219169083151502179055506000600b6000838152602001908152602001600020549050600a6001600a80549050613a579190614d60565b81548110613a8e577f4e487b7100000000000000000000000000000000000000000000000000000000600052603260045260246000fd5b9060005260206000200154600a8281548110613ad3577f4e487b7100000000000000000000000000000000000000000000000000000000600052603260045260246000fd5b9060005260206000200181905550600a805480613b19577f4e487b7100000000000000000000000000000000000000000000000000000000600052603160045260246000fd5b60019003818190600052602060002001600090559055600a6001600a80549050613b439190614d60565b81548110613b7a577f4e487b7100000000000000000000000000000000000000000000000000000000600052603260045260246000fd5b9060005260206000200154600a8281548110613bbf577f4e487b7100000000000000000000000000000000000000000000000000000000600052603260045260246000fd5b9060005260206000200181905550600a805480613c05577f4e487b7100000000000000000000000000000000000000000000000000000000600052603160045260246000fd5b60019003818190600052602060002001600090559055613c256002613c80565b7f5aa7628e41ea0589cf8d4c2c9c02537d47756ceb857899db726f2d9161bf864882604051613c549190614a62565b60405180910390a15050565b60066020528060005260406000206000915054906101000a900460ff1681565b6001816000016000828254019250508190555050565b600081600001549050919050565b613cac61144f565b613ceb576040517f08c379a0000000000000000000000000000000000000000000000000000000008152600401613ce290614902565b60405180910390fd5b60008060006101000a81548160ff0219169083151502179055507f5db9ee0a495bf2e6ff9c91a7834c1ba4fdd244a5e8aa4e537bd38aeae4b073aa613d2e613de7565b604051613d3b91906147fb565b60405180910390a1565b613d4d61144f565b15613d8d576040517f08c379a0000000000000000000000000000000000000000000000000000000008152600401613d8490614962565b60405180910390fd5b60016000806101000a81548160ff0219169083151502179055507f62e78cea01bee320cd4e420270b5ea74000d11b0c9f74754ebdbfc544b05a258613dd0613de7565b604051613ddd91906147fb565b60405180910390a1565b600033905090565b5080546000825590600052602060002090810190613e0d9190613f5c565b50565b60405180610120016040528060008152602001606081526020016060815260200160608152602001606081526020016060815260200160008152602001600073ffffffffffffffffffffffffffffffffffffffff1681526020016000151581525090565b6040518060c0016040528060008152602001600073ffffffffffffffffffffffffffffffffffffffff168152602001600073ffffffffffffffffffffffffffffffffffffffff1681526020016060815260200160608152602001606081525090565b828054613ee290614e1e565b90600052602060002090601f016020900481019282613f045760008555613f4b565b82601f10613f1d57805160ff1916838001178555613f4b565b82800160010185558215613f4b579182015b82811115613f4a578251825591602001919060010190613f2f565b5b509050613f589190613f5c565b5090565b5b80821115613f75576000816000905550600101613f5d565b5090565b6000613f8c613f8784614bc8565b614ba3565b905082815260208101848484011115613fa457600080fd5b613faf848285614ddc565b509392505050565b600081359050613fc681615238565b92915050565b60008083601f840112613fde57600080fd5b8235905067ffffffffffffffff811115613ff757600080fd5b60208301915083602082028301111561400f57600080fd5b9250929050565b6000813590506140258161524f565b92915050565b600082601f83011261403c57600080fd5b813561404c848260208601613f79565b91505092915050565b60008135905061406481615266565b92915050565b60006020828403121561407c57600080fd5b600061408a84828501613fb7565b91505092915050565b60008060008060008060c087890312156140ac57600080fd5b600087013567ffffffffffffffff8111156140c657600080fd5b6140d289828a0161402b565b965050602087013567ffffffffffffffff8111156140ef57600080fd5b6140fb89828a0161402b565b955050604087013567ffffffffffffffff81111561411857600080fd5b61412489828a0161402b565b945050606087013567ffffffffffffffff81111561414157600080fd5b61414d89828a0161402b565b935050608087013567ffffffffffffffff81111561416a57600080fd5b61417689828a0161402b565b92505060a061418789828a01614016565b9150509295509295509295565b6000602082840312156141a657600080fd5b60006141b484828501614055565b91505092915050565b6000806000604084860312156141d257600080fd5b60006141e086828701614055565b935050602084013567ffffffffffffffff8111156141fd57600080fd5b61420986828701613fcc565b92509250509250925092565b6000614221838361426d565b60208301905092915050565b60006142398383614665565b905092915050565b600061424d8383614746565b905092915050565b600061426183836147dd565b60208301905092915050565b61427681614d94565b82525050565b61428581614d94565b82525050565b600061429682614c39565b6142a08185614ca4565b93506142ab83614bf9565b8060005b838110156142dc5781516142c38882614215565b97506142ce83614c70565b9250506001810190506142af565b5085935050505092915050565b60006142f482614c44565b6142fe8185614cb5565b93508360208202850161431085614c09565b8060005b8581101561434c578484038952815161432d858261422d565b945061433883614c7d565b925060208a01995050600181019050614314565b50829750879550505050505092915050565b600061436982614c4f565b6143738185614cc6565b93508360208202850161438585614c19565b8060005b858110156143c157848403895281516143a28582614241565b94506143ad83614c8a565b925060208a01995050600181019050614389565b50829750879550505050505092915050565b60006143de82614c5a565b6143e88185614cd7565b93506143f383614c29565b8060005b8381101561442457815161440b8882614255565b975061441683614c97565b9250506001810190506143f7565b5085935050505092915050565b61443a81614da6565b82525050565b61444981614da6565b82525050565b600061445a82614c65565b6144648185614ce8565b9350614474818560208601614deb565b61447d81614f57565b840191505092915050565b600061449382614c65565b61449d8185614cf9565b93506144ad818560208601614deb565b6144b681614f57565b840191505092915050565b60006144ce602183614cf9565b91506144d982614f68565b604082019050919050565b60006144f1601483614cf9565b91506144fc82614fb7565b602082019050919050565b6000614514601483614cf9565b915061451f82614fe0565b602082019050919050565b6000614537601f83614cf9565b915061454282615009565b602082019050919050565b600061455a601083614cf9565b915061456582615032565b602082019050919050565b600061457d601c83614cf9565b91506145888261505b565b602082019050919050565b60006145a0604383614cf9565b91506145ab82615084565b606082019050919050565b60006145c3602a83614cf9565b91506145ce826150f9565b604082019050919050565b60006145e6601f83614cf9565b91506145f182615148565b602082019050919050565b6000614609601c83614cf9565b915061461482615171565b602082019050919050565b600061462c602583614cf9565b91506146378261519a565b604082019050919050565b600061464f602283614cf9565b915061465a826151e9565b604082019050919050565b60006101208301600083015161467e60008601826147dd565b5060208301518482036020860152614696828261444f565b915050604083015184820360408601526146b0828261444f565b915050606083015184820360608601526146ca828261444f565b915050608083015184820360808601526146e4828261444f565b91505060a083015184820360a08601526146fe828261444f565b91505060c083015161471360c08601826147dd565b5060e083015161472660e086018261426d565b5061010083015161473b610100860182614431565b508091505092915050565b600060c08301600083015161475e60008601826147dd565b506020830151614771602086018261426d565b506040830151614784604086018261426d565b506060830151848203606086015261479c828261444f565b915050608083015184820360808601526147b6828261444f565b91505060a083015184820360a08601526147d0828261444f565b9150508091505092915050565b6147e681614dd2565b82525050565b6147f581614dd2565b82525050565b6000602082019050614810600083018461427c565b92915050565b600060408201905061482b600083018561427c565b614838602083018461427c565b9392505050565b60006020820190508181036000830152614859818461428b565b905092915050565b6000602082019050818103600083015261487b81846142e9565b905092915050565b6000602082019050818103600083015261489d818461435e565b905092915050565b600060208201905081810360008301526148bf81846143d3565b905092915050565b60006020820190506148dc6000830184614440565b92915050565b600060208201905081810360008301526148fb816144c1565b9050919050565b6000602082019050818103600083015261491b816144e4565b9050919050565b6000602082019050818103600083015261493b81614507565b9050919050565b6000602082019050818103600083015261495b8161452a565b9050919050565b6000602082019050818103600083015261497b8161454d565b9050919050565b6000602082019050818103600083015261499b81614570565b9050919050565b600060208201905081810360008301526149bb81614593565b9050919050565b600060208201905081810360008301526149db816145b6565b9050919050565b600060208201905081810360008301526149fb816145d9565b9050919050565b60006020820190508181036000830152614a1b816145fc565b9050919050565b60006020820190508181036000830152614a3b8161461f565b9050919050565b60006020820190508181036000830152614a5b81614642565b9050919050565b6000602082019050614a7760008301846147ec565b92915050565b600060c082019050614a9260008301896147ec565b614a9f602083018861427c565b614aac604083018761427c565b8181036060830152614abe8186614488565b90508181036080830152614ad28185614488565b905081810360a0830152614ae68184614488565b9050979650505050505050565b600061012082019050614b09600083018c6147ec565b8181036020830152614b1b818b614488565b90508181036040830152614b2f818a614488565b90508181036060830152614b438189614488565b90508181036080830152614b578188614488565b905081810360a0830152614b6b8187614488565b9050614b7a60c08301866147ec565b614b8760e083018561427c565b614b95610100830184614440565b9a9950505050505050505050565b6000614bad614bbe565b9050614bb98282614e50565b919050565b6000604051905090565b600067ffffffffffffffff821115614be357614be2614f28565b5b614bec82614f57565b9050602081019050919050565b6000819050602082019050919050565b6000819050602082019050919050565b6000819050602082019050919050565b6000819050602082019050919050565b600081519050919050565b600081519050919050565b600081519050919050565b600081519050919050565b600081519050919050565b6000602082019050919050565b6000602082019050919050565b6000602082019050919050565b6000602082019050919050565b600082825260208201905092915050565b600082825260208201905092915050565b600082825260208201905092915050565b600082825260208201905092915050565b600082825260208201905092915050565b600082825260208201905092915050565b6000614d1582614dd2565b9150614d2083614dd2565b9250827fffffffffffffffffffffffffffffffffffffffffffffffffffffffffffffffff03821115614d5557614d54614eca565b5b828201905092915050565b6000614d6b82614dd2565b9150614d7683614dd2565b925082821015614d8957614d88614eca565b5b828203905092915050565b6000614d9f82614db2565b9050919050565b60008115159050919050565b600073ffffffffffffffffffffffffffffffffffffffff82169050919050565b6000819050919050565b82818337600083830152505050565b60005b83811015614e09578082015181840152602081019050614dee565b83811115614e18576000848401525b50505050565b60006002820490506001821680614e3657607f821691505b60208210811415614e4a57614e49614ef9565b5b50919050565b614e5982614f57565b810181811067ffffffffffffffff82111715614e7857614e77614f28565b5b80604052505050565b6000614e8c82614dd2565b91507fffffffffffffffffffffffffffffffffffffffffffffffffffffffffffffffff821415614ebf57614ebe614eca565b5b600182019050919050565b7f4e487b7100000000000000000000000000000000000000000000000000000000600052601160045260246000fd5b7f4e487b7100000000000000000000000000000000000000000000000000000000600052602260045260246000fd5b7f4e487b7100000000000000000000000000000000000000000000000000000000600052604160045260246000fd5b6000601f19601f8301169050919050565b7f6f6e6c792061646d696e2063616e2063616c6c20746869732066756e6374696f60008201527f6e00000000000000000000000000000000000000000000000000000000000000602082015250565b7f5061757361626c653a206e6f7420706175736564000000000000000000000000600082015250565b7f796f752068617665206265656e2062616e6e6564000000000000000000000000600082015250565b7f6f6e6c792066696c65206f776e65722063616e2073686172652066696c657300600082015250565b7f5061757361626c653a2070617573656400000000000000000000000000000000600082015250565b7f706c6561736520656e74657220612076616c6964206164647265737300000000600082015250565b7f46696c6520686173206265656e20626c61636b6c697374656420666f7220766960008201527f6f6c6174696f6e2c20616e642063616e6e6f74206265206d616465207075626c60208201527f69632e0000000000000000000000000000000000000000000000000000000000604082015250565b7f796f752063616e6e6f742073686172652066696c657320746f20796f7572206f60008201527f776e206164647265737300000000000000000000000000000000000000000000602082015250565b7f46696c6520686173206265656e207265706f72746564206561726c6965722e00600082015250565b7f4f6e6c79204d6f64657261746f72732048617665204163636573732100000000600082015250565b7f796f752063616e206f6e6c79206d616e6970756c61746520796f7572206f776e60008201527f2066696c65000000000000000000000000000000000000000000000000000000602082015250565b7f416464726573732069732063757272656e746c7920426c61636b6c697374656460008201527f2e2e000000000000000000000000000000000000000000000000000000000000602082015250565b61524181614d94565b811461524c57600080fd5b50565b61525881614da6565b811461526357600080fd5b50565b61526f81614dd2565b811461527a57600080fd5b5056fea264697066735822122059894627945a5be4122c55120705cdc2798897fb90f47ec2c26a7941e48cfd7464736f6c63430008040033",
  "linkReferences": {},
  "deployedLinkReferences": {}
}