{
    "_format": "hh-sol-artifact-1",
    "contractName": "OxPantry",
    "sourceName": "contracts/0xPantry.sol",
    "abi": [
        {
            "inputs": [],
            "stateMutability": "nonpayable",
            "type": "constructor"
        },
        {
            "anonymous": false,
            "inputs": [
                {
                    "indexed": false,
                    "internalType": "address",
                    "name": "adder",
                    "type": "address"
                },
                {
                    "indexed": false,
                    "internalType": "address",
                    "name": "newMod",
                    "type": "address"
                }
            ],
            "name": "AssignMod",
            "type": "event"
        },
        {
            "anonymous": false,
            "inputs": [
                {
                    "indexed": false,
                    "internalType": "uint256",
                    "name": "fileId",
                    "type": "uint256"
                },
                {
                    "indexed": false,
                    "internalType": "string",
                    "name": "fileHash",
                    "type": "string"
                },
                {
                    "indexed": false,
                    "internalType": "string",
                    "name": "fileSize",
                    "type": "string"
                },
                {
                    "indexed": false,
                    "internalType": "string",
                    "name": "fileType",
                    "type": "string"
                },
                {
                    "indexed": false,
                    "internalType": "string",
                    "name": "fileName",
                    "type": "string"
                },
                {
                    "indexed": false,
                    "internalType": "string",
                    "name": "fileDescription",
                    "type": "string"
                },
                {
                    "indexed": false,
                    "internalType": "uint256",
                    "name": "uploadTime",
                    "type": "uint256"
                },
                {
                    "indexed": false,
                    "internalType": "address",
                    "name": "uploader",
                    "type": "address"
                },
                {
                    "indexed": false,
                    "internalType": "bool",
                    "name": "isPublic",
                    "type": "bool"
                }
            ],
            "name": "FileUploaded",
            "type": "event"
        },
        {
            "anonymous": false,
            "inputs": [
                {
                    "indexed": false,
                    "internalType": "address",
                    "name": "account",
                    "type": "address"
                }
            ],
            "name": "Paused",
            "type": "event"
        },
        {
            "anonymous": false,
            "inputs": [
                {
                    "indexed": false,
                    "internalType": "address",
                    "name": "remover",
                    "type": "address"
                },
                {
                    "indexed": false,
                    "internalType": "address",
                    "name": "newMod",
                    "type": "address"
                }
            ],
            "name": "RemoveMod",
            "type": "event"
        },
        {
            "anonymous": false,
            "inputs": [
                {
                    "indexed": false,
                    "internalType": "address",
                    "name": "account",
                    "type": "address"
                }
            ],
            "name": "Unpaused",
            "type": "event"
        },
        {
            "anonymous": false,
            "inputs": [
                {
                    "indexed": false,
                    "internalType": "address",
                    "name": "addr",
                    "type": "address"
                }
            ],
            "name": "addInBlackList",
            "type": "event"
        },
        {
            "anonymous": false,
            "inputs": [
                {
                    "indexed": false,
                    "internalType": "uint256",
                    "name": "_itemIds",
                    "type": "uint256"
                }
            ],
            "name": "madePrivate",
            "type": "event"
        },
        {
            "anonymous": false,
            "inputs": [
                {
                    "indexed": false,
                    "internalType": "uint256",
                    "name": "_itemIds",
                    "type": "uint256"
                }
            ],
            "name": "madePrivateMod",
            "type": "event"
        },
        {
            "anonymous": false,
            "inputs": [
                {
                    "indexed": false,
                    "internalType": "uint256",
                    "name": "_itemIds",
                    "type": "uint256"
                }
            ],
            "name": "madePublic",
            "type": "event"
        },
        {
            "anonymous": false,
            "inputs": [
                {
                    "indexed": false,
                    "internalType": "uint256",
                    "name": "_itemIds",
                    "type": "uint256"
                }
            ],
            "name": "newReport",
            "type": "event"
        },
        {
            "anonymous": false,
            "inputs": [
                {
                    "indexed": false,
                    "internalType": "address",
                    "name": "addr",
                    "type": "address"
                }
            ],
            "name": "remInBlackList",
            "type": "event"
        },
        {
            "anonymous": false,
            "inputs": [
                {
                    "indexed": false,
                    "internalType": "address",
                    "name": "share_to",
                    "type": "address"
                },
                {
                    "indexed": false,
                    "internalType": "address",
                    "name": "shared_by",
                    "type": "address"
                },
                {
                    "indexed": false,
                    "internalType": "string",
                    "name": "hash",
                    "type": "string"
                }
            ],
            "name": "sharedEvent",
            "type": "event"
        },
        {
            "inputs": [
                {
                    "internalType": "uint256",
                    "name": "",
                    "type": "uint256"
                }
            ],
            "name": "Allfiles",
            "outputs": [
                {
                    "internalType": "uint256",
                    "name": "fileId",
                    "type": "uint256"
                },
                {
                    "internalType": "string",
                    "name": "fileHash",
                    "type": "string"
                },
                {
                    "internalType": "string",
                    "name": "fileSize",
                    "type": "string"
                },
                {
                    "internalType": "string",
                    "name": "fileType",
                    "type": "string"
                },
                {
                    "internalType": "string",
                    "name": "fileName",
                    "type": "string"
                },
                {
                    "internalType": "string",
                    "name": "fileDescription",
                    "type": "string"
                },
                {
                    "internalType": "uint256",
                    "name": "uploadTime",
                    "type": "uint256"
                },
                {
                    "internalType": "address",
                    "name": "uploader",
                    "type": "address"
                },
                {
                    "internalType": "bool",
                    "name": "isPublic",
                    "type": "bool"
                }
            ],
            "stateMutability": "view",
            "type": "function"
        },
        {
            "inputs": [
                {
                    "internalType": "address",
                    "name": "_addr",
                    "type": "address"
                }
            ],
            "name": "addToBlackList",
            "outputs": [
                {
                    "internalType": "bool",
                    "name": "",
                    "type": "bool"
                }
            ],
            "stateMutability": "nonpayable",
            "type": "function"
        },
        {
            "inputs": [
                {
                    "internalType": "uint256",
                    "name": "",
                    "type": "uint256"
                }
            ],
            "name": "allSharedFiles",
            "outputs": [
                {
                    "internalType": "uint256",
                    "name": "shareId",
                    "type": "uint256"
                },
                {
                    "internalType": "address",
                    "name": "sender",
                    "type": "address"
                },
                {
                    "internalType": "address",
                    "name": "receiver",
                    "type": "address"
                },
                {
                    "internalType": "string",
                    "name": "shared_hash",
                    "type": "string"
                }
            ],
            "stateMutability": "view",
            "type": "function"
        },
        {
            "inputs": [
                {
                    "internalType": "address",
                    "name": "_newMod",
                    "type": "address"
                }
            ],
            "name": "assignMod",
            "outputs": [],
            "stateMutability": "nonpayable",
            "type": "function"
        },
        {
            "inputs": [
                {
                    "internalType": "uint256",
                    "name": "",
                    "type": "uint256"
                }
            ],
            "name": "blackList",
            "outputs": [
                {
                    "internalType": "address",
                    "name": "",
                    "type": "address"
                }
            ],
            "stateMutability": "view",
            "type": "function"
        },
        {
            "inputs": [],
            "name": "blackListArray",
            "outputs": [
                {
                    "internalType": "address[]",
                    "name": "",
                    "type": "address[]"
                }
            ],
            "stateMutability": "view",
            "type": "function"
        },
        {
            "inputs": [
                {
                    "internalType": "address",
                    "name": "",
                    "type": "address"
                }
            ],
            "name": "blackListedAddresses",
            "outputs": [
                {
                    "internalType": "bool",
                    "name": "",
                    "type": "bool"
                }
            ],
            "stateMutability": "view",
            "type": "function"
        },
        {
            "inputs": [
                {
                    "internalType": "address",
                    "name": "_user",
                    "type": "address"
                }
            ],
            "name": "checkMod",
            "outputs": [
                {
                    "internalType": "bool",
                    "name": "",
                    "type": "bool"
                }
            ],
            "stateMutability": "view",
            "type": "function"
        },
        {
            "inputs": [
                {
                    "internalType": "uint256",
                    "name": "fileId",
                    "type": "uint256"
                }
            ],
            "name": "clearReportedFiles",
            "outputs": [],
            "stateMutability": "nonpayable",
            "type": "function"
        },
        {
            "inputs": [],
            "name": "fetchPublicFiles",
            "outputs": [
                {
                    "components": [
                        {
                            "internalType": "uint256",
                            "name": "fileId",
                            "type": "uint256"
                        },
                        {
                            "internalType": "string",
                            "name": "fileHash",
                            "type": "string"
                        },
                        {
                            "internalType": "string",
                            "name": "fileSize",
                            "type": "string"
                        },
                        {
                            "internalType": "string",
                            "name": "fileType",
                            "type": "string"
                        },
                        {
                            "internalType": "string",
                            "name": "fileName",
                            "type": "string"
                        },
                        {
                            "internalType": "string",
                            "name": "fileDescription",
                            "type": "string"
                        },
                        {
                            "internalType": "uint256",
                            "name": "uploadTime",
                            "type": "uint256"
                        },
                        {
                            "internalType": "address",
                            "name": "uploader",
                            "type": "address"
                        },
                        {
                            "internalType": "bool",
                            "name": "isPublic",
                            "type": "bool"
                        }
                    ],
                    "internalType": "struct OxPantry.File[]",
                    "name": "",
                    "type": "tuple[]"
                }
            ],
            "stateMutability": "view",
            "type": "function"
        },
        {
            "inputs": [],
            "name": "fetchUserFiles",
            "outputs": [
                {
                    "components": [
                        {
                            "internalType": "uint256",
                            "name": "fileId",
                            "type": "uint256"
                        },
                        {
                            "internalType": "string",
                            "name": "fileHash",
                            "type": "string"
                        },
                        {
                            "internalType": "string",
                            "name": "fileSize",
                            "type": "string"
                        },
                        {
                            "internalType": "string",
                            "name": "fileType",
                            "type": "string"
                        },
                        {
                            "internalType": "string",
                            "name": "fileName",
                            "type": "string"
                        },
                        {
                            "internalType": "string",
                            "name": "fileDescription",
                            "type": "string"
                        },
                        {
                            "internalType": "uint256",
                            "name": "uploadTime",
                            "type": "uint256"
                        },
                        {
                            "internalType": "address",
                            "name": "uploader",
                            "type": "address"
                        },
                        {
                            "internalType": "bool",
                            "name": "isPublic",
                            "type": "bool"
                        }
                    ],
                    "internalType": "struct OxPantry.File[]",
                    "name": "",
                    "type": "tuple[]"
                }
            ],
            "stateMutability": "view",
            "type": "function"
        },
        {
            "inputs": [],
            "name": "getSharedFiles",
            "outputs": [
                {
                    "components": [
                        {
                            "internalType": "uint256",
                            "name": "shareId",
                            "type": "uint256"
                        },
                        {
                            "internalType": "address",
                            "name": "sender",
                            "type": "address"
                        },
                        {
                            "internalType": "address",
                            "name": "receiver",
                            "type": "address"
                        },
                        {
                            "internalType": "string",
                            "name": "shared_hash",
                            "type": "string"
                        }
                    ],
                    "internalType": "struct OxPantry.SharedFile[]",
                    "name": "",
                    "type": "tuple[]"
                }
            ],
            "stateMutability": "view",
            "type": "function"
        },
        {
            "inputs": [
                {
                    "internalType": "uint256",
                    "name": "fileId",
                    "type": "uint256"
                }
            ],
            "name": "makeFilePrivate",
            "outputs": [],
            "stateMutability": "nonpayable",
            "type": "function"
        },
        {
            "inputs": [
                {
                    "internalType": "uint256",
                    "name": "fileId",
                    "type": "uint256"
                }
            ],
            "name": "makeFilePublic",
            "outputs": [],
            "stateMutability": "nonpayable",
            "type": "function"
        },
        {
            "inputs": [
                {
                    "internalType": "uint256",
                    "name": "fileId",
                    "type": "uint256"
                }
            ],
            "name": "makeReportedPrivate",
            "outputs": [],
            "stateMutability": "nonpayable",
            "type": "function"
        },
        {
            "inputs": [
                {
                    "internalType": "address",
                    "name": "",
                    "type": "address"
                }
            ],
            "name": "moderator",
            "outputs": [
                {
                    "internalType": "bool",
                    "name": "",
                    "type": "bool"
                }
            ],
            "stateMutability": "view",
            "type": "function"
        },
        {
            "inputs": [],
            "name": "pause",
            "outputs": [],
            "stateMutability": "nonpayable",
            "type": "function"
        },
        {
            "inputs": [],
            "name": "paused",
            "outputs": [
                {
                    "internalType": "bool",
                    "name": "",
                    "type": "bool"
                }
            ],
            "stateMutability": "view",
            "type": "function"
        },
        {
            "inputs": [
                {
                    "internalType": "address",
                    "name": "_addr",
                    "type": "address"
                }
            ],
            "name": "removeFromBlackList",
            "outputs": [
                {
                    "internalType": "bool",
                    "name": "",
                    "type": "bool"
                }
            ],
            "stateMutability": "nonpayable",
            "type": "function"
        },
        {
            "inputs": [
                {
                    "internalType": "address",
                    "name": "_mod",
                    "type": "address"
                }
            ],
            "name": "removeMod",
            "outputs": [],
            "stateMutability": "nonpayable",
            "type": "function"
        },
        {
            "inputs": [
                {
                    "internalType": "uint256",
                    "name": "fileId",
                    "type": "uint256"
                }
            ],
            "name": "report",
            "outputs": [],
            "stateMutability": "nonpayable",
            "type": "function"
        },
        {
            "inputs": [
                {
                    "internalType": "uint256",
                    "name": "",
                    "type": "uint256"
                }
            ],
            "name": "reportExist",
            "outputs": [
                {
                    "internalType": "bool",
                    "name": "",
                    "type": "bool"
                }
            ],
            "stateMutability": "view",
            "type": "function"
        },
        {
            "inputs": [
                {
                    "internalType": "uint256",
                    "name": "",
                    "type": "uint256"
                }
            ],
            "name": "reportedFiles",
            "outputs": [
                {
                    "internalType": "uint256",
                    "name": "",
                    "type": "uint256"
                }
            ],
            "stateMutability": "view",
            "type": "function"
        },
        {
            "inputs": [],
            "name": "reportedListArray",
            "outputs": [
                {
                    "internalType": "uint256[]",
                    "name": "",
                    "type": "uint256[]"
                }
            ],
            "stateMutability": "view",
            "type": "function"
        },
        {
            "inputs": [
                {
                    "internalType": "uint256",
                    "name": "_fileId",
                    "type": "uint256"
                },
                {
                    "internalType": "address[]",
                    "name": "_receivers",
                    "type": "address[]"
                },
                {
                    "internalType": "string",
                    "name": "_hashed_file",
                    "type": "string"
                }
            ],
            "name": "shareFile",
            "outputs": [],
            "stateMutability": "nonpayable",
            "type": "function"
        },
        {
            "inputs": [],
            "name": "unpause",
            "outputs": [],
            "stateMutability": "nonpayable",
            "type": "function"
        },
        {
            "inputs": [
                {
                    "internalType": "string",
                    "name": "_fileHash",
                    "type": "string"
                },
                {
                    "internalType": "string",
                    "name": "_fileSize",
                    "type": "string"
                },
                {
                    "internalType": "string",
                    "name": "_fileType",
                    "type": "string"
                },
                {
                    "internalType": "string",
                    "name": "_fileName",
                    "type": "string"
                },
                {
                    "internalType": "string",
                    "name": "_fileDescription",
                    "type": "string"
                },
                {
                    "internalType": "bool",
                    "name": "_isPublic",
                    "type": "bool"
                }
            ],
            "name": "uploadFile",
            "outputs": [],
            "stateMutability": "nonpayable",
            "type": "function"
        }
    ],
    "bytecode": "0x608060405234801561001057600080fd5b5060008060006101000a81548160ff0219169083151502179055506001600460003373ffffffffffffffffffffffffffffffffffffffff1673ffffffffffffffffffffffffffffffffffffffff16815260200190815260200160002060006101000a81548160ff021916908315150217905550614e60806100926000396000f3fe608060405234801561001057600080fd5b50600436106101a85760003560e01c80638456cb59116100f9578063a8b23dbc11610097578063cfce5c4611610071578063cfce5c46146104d6578063d13d9e9c146104f4578063d1b6961e14610510578063f54dc7571461052c576101a8565b8063a8b23dbc1461046c578063b1bed4f51461048a578063b27e237c146104ba576101a8565b8063972a92b9116100d3578063972a92b9146103b85780639a66b923146103f05780639b5690741461040c578063a47aacec1461043c576101a8565b80638456cb5914610374578063914e31441461037e578063969b1cdb1461039c576101a8565b80634a49ac4c1161016657806364f2f7a41161014057806364f2f7a4146102c5578063709ec8b4146102f55780637bf7e5c61461032557806382d0ed2e14610358576101a8565b80634a49ac4c146102595780635a2fd58b146102895780635c975abb146102a7576101a8565b8062e17ba0146101ad57806306ae3109146101c957806331d1f185146101e55780633f4ba83a14610203578063417c73a71461020d5780634637de3c1461023d575b600080fd5b6101c760048036038101906101c29190613d35565b61055c565b005b6101e360048036038101906101de9190613d5e565b61063a565b005b6101ed610c4e565b6040516101fa9190614438565b60405180910390f35b61020b6112fe565b005b61022760048036038101906102229190613c0b565b61139c565b604051610234919061449e565b60405180910390f35b61025760048036038101906102529190613c0b565b61152d565b005b610273600480360381019061026e9190613c0b565b61169d565b604051610280919061449e565b60405180910390f35b610291611975565b60405161029e919061447c565b60405180910390f35b6102af611a61565b6040516102bc919061449e565b60405180910390f35b6102df60048036038101906102da9190613c0b565b611a77565b6040516102ec919061449e565b60405180910390f35b61030f600480360381019061030a9190613d35565b611b1b565b60405161031c9190614394565b60405180910390f35b61033f600480360381019061033a9190613d35565b611b5a565b60405161034f9493929190614654565b60405180910390f35b610372600480360381019061036d9190613d35565b611c52565b005b61037c611e44565b005b610386611ee2565b604051610393919061445a565b60405180910390f35b6103b660048036038101906103b19190613d35565b61223f565b005b6103d260048036038101906103cd9190613d35565b612335565b6040516103e7999897969594939291906146a0565b60405180910390f35b61040a60048036038101906104059190613d35565b612658565b005b61042660048036038101906104219190613d35565b6128b1565b6040516104339190614639565b60405180910390f35b61045660048036038101906104519190613d35565b6128d5565b604051610463919061449e565b60405180910390f35b6104746128f5565b6040516104819190614438565b60405180910390f35b6104a4600480360381019061049f9190613c0b565b612ee6565b6040516104b1919061449e565b60405180910390f35b6104d460048036038101906104cf9190613c0b565b612f06565b005b6104de613076565b6040516104eb9190614416565b60405180910390f35b61050e60048036038101906105099190613c34565b613198565b005b61052a60048036038101906105259190613d35565b6134d7565b005b61054660048036038101906105419190613c0b565b61380f565b604051610553919061449e565b60405180910390f35b336000600460008373ffffffffffffffffffffffffffffffffffffffff1673ffffffffffffffffffffffffffffffffffffffff16815260200190815260200160002060009054906101000a900460ff169050806105ee576040517f08c379a00000000000000000000000000000000000000000000000000000000081526004016105e5906145d9565b60405180910390fd5b60006005600085815260200190815260200160002060070160146101000a81548160ff021916908315150217905550610627600261382f565b600a6000610635919061399e565b505050565b610642611a61565b15610682576040517f08c379a000000000000000000000000000000000000000000000000000000000815260040161067990614539565b60405180910390fd5b60001515600660003373ffffffffffffffffffffffffffffffffffffffff1673ffffffffffffffffffffffffffffffffffffffff16815260200190815260200160002060009054906101000a900460ff16151514610715576040517f08c379a000000000000000000000000000000000000000000000000000000000815260040161070c90614619565b60405180910390fd5b600081511161072357600080fd5b3373ffffffffffffffffffffffffffffffffffffffff166005600086815260200190815260200160002060070160009054906101000a900473ffffffffffffffffffffffffffffffffffffffff1673ffffffffffffffffffffffffffffffffffffffff16146107c7576040517f08c379a00000000000000000000000000000000000000000000000000000000081526004016107be90614519565b60405180910390fd5b60005b83839050811015610c4757600073ffffffffffffffffffffffffffffffffffffffff16848483818110610826577f4e487b7100000000000000000000000000000000000000000000000000000000600052603260045260246000fd5b905060200201602081019061083b9190613c0b565b73ffffffffffffffffffffffffffffffffffffffff161415610892576040517f08c379a000000000000000000000000000000000000000000000000000000000815260040161088990614559565b60405180910390fd5b3373ffffffffffffffffffffffffffffffffffffffff168484838181106108e2577f4e487b7100000000000000000000000000000000000000000000000000000000600052603260045260246000fd5b90506020020160208101906108f79190613c0b565b73ffffffffffffffffffffffffffffffffffffffff16141561094e576040517f08c379a000000000000000000000000000000000000000000000000000000000815260040161094590614599565b60405180910390fd5b600015156006600086868581811061098f577f4e487b7100000000000000000000000000000000000000000000000000000000600052603260045260246000fd5b90506020020160208101906109a49190613c0b565b73ffffffffffffffffffffffffffffffffffffffff1673ffffffffffffffffffffffffffffffffffffffff16815260200190815260200160002060009054906101000a900460ff16151514610a2e576040517f08c379a0000000000000000000000000000000000000000000000000000000008152600401610a25906144f9565b60405180910390fd5b610a38600361382f565b6000610a446003613845565b905060405180608001604052808281526020013373ffffffffffffffffffffffffffffffffffffffff168152602001868685818110610aac577f4e487b7100000000000000000000000000000000000000000000000000000000600052603260045260246000fd5b9050602002016020810190610ac19190613c0b565b73ffffffffffffffffffffffffffffffffffffffff16815260200184815250600760008381526020019081526020016000206000820151816000015560208201518160010160006101000a81548173ffffffffffffffffffffffffffffffffffffffff021916908373ffffffffffffffffffffffffffffffffffffffff16021790555060408201518160020160006101000a81548173ffffffffffffffffffffffffffffffffffffffff021916908373ffffffffffffffffffffffffffffffffffffffff1602179055506060820151816003019080519060200190610ba79291906139bf565b509050507f5611930653e40f9d93973229f0c75ebf5a608568f13686f8c54568dd6cb1194d858584818110610c05577f4e487b7100000000000000000000000000000000000000000000000000000000600052603260045260246000fd5b9050602002016020810190610c1a9190613c0b565b3385604051610c2b939291906143d8565b60405180910390a1508080610c3f90614a2e565b9150506107ca565b5050505050565b6060610c58611a61565b15610c98576040517f08c379a0000000000000000000000000000000000000000000000000000000008152600401610c8f90614539565b60405180910390fd5b60001515600660003373ffffffffffffffffffffffffffffffffffffffff1673ffffffffffffffffffffffffffffffffffffffff16815260200190815260200160002060009054906101000a900460ff16151514610d2b576040517f08c379a0000000000000000000000000000000000000000000000000000000008152600401610d2290614619565b60405180910390fd5b6000610d376001613845565b905060008060005b83811015610de0573373ffffffffffffffffffffffffffffffffffffffff1660056000600184610d6f91906148b7565b815260200190815260200160002060070160009054906101000a900473ffffffffffffffffffffffffffffffffffffffff1673ffffffffffffffffffffffffffffffffffffffff161415610dcd57600183610dca91906148b7565b92505b8080610dd890614a2e565b915050610d3f565b5060008267ffffffffffffffff811115610e23577f4e487b7100000000000000000000000000000000000000000000000000000000600052604160045260246000fd5b604051908082528060200260200182016040528015610e5c57816020015b610e49613a45565b815260200190600190039081610e415790505b50905060005b848110156112f3573373ffffffffffffffffffffffffffffffffffffffff1660056000600184610e9291906148b7565b815260200190815260200160002060070160009054906101000a900473ffffffffffffffffffffffffffffffffffffffff1673ffffffffffffffffffffffffffffffffffffffff1614156112e057600060056000600184610ef391906148b7565b81526020019081526020016000206000015490506000600560008381526020019081526020016000209050806040518061012001604052908160008201548152602001600182018054610f45906149cb565b80601f0160208091040260200160405190810160405280929190818152602001828054610f71906149cb565b8015610fbe5780601f10610f9357610100808354040283529160200191610fbe565b820191906000526020600020905b815481529060010190602001808311610fa157829003601f168201915b50505050508152602001600282018054610fd7906149cb565b80601f0160208091040260200160405190810160405280929190818152602001828054611003906149cb565b80156110505780601f1061102557610100808354040283529160200191611050565b820191906000526020600020905b81548152906001019060200180831161103357829003601f168201915b50505050508152602001600382018054611069906149cb565b80601f0160208091040260200160405190810160405280929190818152602001828054611095906149cb565b80156110e25780601f106110b7576101008083540402835291602001916110e2565b820191906000526020600020905b8154815290600101906020018083116110c557829003601f168201915b505050505081526020016004820180546110fb906149cb565b80601f0160208091040260200160405190810160405280929190818152602001828054611127906149cb565b80156111745780601f1061114957610100808354040283529160200191611174565b820191906000526020600020905b81548152906001019060200180831161115757829003601f168201915b5050505050815260200160058201805461118d906149cb565b80601f01602080910402602001604051908101604052809291908181526020018280546111b9906149cb565b80156112065780601f106111db57610100808354040283529160200191611206565b820191906000526020600020905b8154815290600101906020018083116111e957829003601f168201915b50505050508152602001600682015481526020016007820160009054906101000a900473ffffffffffffffffffffffffffffffffffffffff1673ffffffffffffffffffffffffffffffffffffffff1673ffffffffffffffffffffffffffffffffffffffff1681526020016007820160149054906101000a900460ff1615151515815250508486815181106112c3577f4e487b7100000000000000000000000000000000000000000000000000000000600052603260045260246000fd5b60200260200101819052506001856112db91906148b7565b945050505b80806112eb90614a2e565b915050610e62565b508094505050505090565b336000600460008373ffffffffffffffffffffffffffffffffffffffff1673ffffffffffffffffffffffffffffffffffffffff16815260200190815260200160002060009054906101000a900460ff16905080611390576040517f08c379a0000000000000000000000000000000000000000000000000000000008152600401611387906145d9565b60405180910390fd5b611398613853565b5050565b6000336000600460008373ffffffffffffffffffffffffffffffffffffffff1673ffffffffffffffffffffffffffffffffffffffff16815260200190815260200160002060009054906101000a900460ff16905080611430576040517f08c379a0000000000000000000000000000000000000000000000000000000008152600401611427906145d9565b60405180910390fd5b6001600660008673ffffffffffffffffffffffffffffffffffffffff1673ffffffffffffffffffffffffffffffffffffffff16815260200190815260200160002060006101000a81548160ff0219169083151502179055506008849080600181540180825580915050600190039060005260206000200160009091909190916101000a81548173ffffffffffffffffffffffffffffffffffffffff021916908373ffffffffffffffffffffffffffffffffffffffff1602179055507f2baa715fcf00d01553d31801d54d8f0cdfed5dfd3de24bf24c49281cd16543978460405161151a9190614394565b60405180910390a1600192505050919050565b611535611a61565b15611575576040517f08c379a000000000000000000000000000000000000000000000000000000000815260040161156c90614539565b60405180910390fd5b336000600460008373ffffffffffffffffffffffffffffffffffffffff1673ffffffffffffffffffffffffffffffffffffffff16815260200190815260200160002060009054906101000a900460ff16905080611607576040517f08c379a00000000000000000000000000000000000000000000000000000000081526004016115fe906145d9565b60405180910390fd5b6000600460008573ffffffffffffffffffffffffffffffffffffffff1673ffffffffffffffffffffffffffffffffffffffff16815260200190815260200160002060006101000a81548160ff0219169083151502179055507f21e8741435b5373014087a70641e17e7139c8f3ecffbc070c83ca921e5f06ab533846040516116909291906143af565b60405180910390a1505050565b6000336000600460008373ffffffffffffffffffffffffffffffffffffffff1673ffffffffffffffffffffffffffffffffffffffff16815260200190815260200160002060009054906101000a900460ff16905080611731576040517f08c379a0000000000000000000000000000000000000000000000000000000008152600401611728906145d9565b60405180910390fd5b6000600960008673ffffffffffffffffffffffffffffffffffffffff1673ffffffffffffffffffffffffffffffffffffffff16815260200190815260200160002054905060086001600880549050611789919061490d565b815481106117c0577f4e487b7100000000000000000000000000000000000000000000000000000000600052603260045260246000fd5b9060005260206000200160009054906101000a900473ffffffffffffffffffffffffffffffffffffffff1660088281548110611825577f4e487b7100000000000000000000000000000000000000000000000000000000600052603260045260246000fd5b9060005260206000200160006101000a81548173ffffffffffffffffffffffffffffffffffffffff021916908373ffffffffffffffffffffffffffffffffffffffff16021790555060088054806118a5577f4e487b7100000000000000000000000000000000000000000000000000000000600052603160045260246000fd5b6001900381819060005260206000200160006101000a81549073ffffffffffffffffffffffffffffffffffffffff021916905590556000600660008773ffffffffffffffffffffffffffffffffffffffff1673ffffffffffffffffffffffffffffffffffffffff16815260200190815260200160002060006101000a81548160ff0219169083151502179055507f92e933ae15bd6223e7a81ec3233d4252ded2d20b856dd551c95447ffad396df0856040516119619190614394565b60405180910390a160019350505050919050565b6060336000600460008373ffffffffffffffffffffffffffffffffffffffff1673ffffffffffffffffffffffffffffffffffffffff16815260200190815260200160002060009054906101000a900460ff16905080611a09576040517f08c379a0000000000000000000000000000000000000000000000000000000008152600401611a00906145d9565b60405180910390fd5b600a805480602002602001604051908101604052809291908181526020018280548015611a5557602002820191906000526020600020905b815481526020019060010190808311611a41575b50505050509250505090565b60008060009054906101000a900460ff16905090565b6000611a81611a61565b15611ac1576040517f08c379a0000000000000000000000000000000000000000000000000000000008152600401611ab890614539565b60405180910390fd5b6000600460008473ffffffffffffffffffffffffffffffffffffffff1673ffffffffffffffffffffffffffffffffffffffff16815260200190815260200160002060009054906101000a900460ff16905080915050919050565b60088181548110611b2b57600080fd5b906000526020600020016000915054906101000a900473ffffffffffffffffffffffffffffffffffffffff1681565b60076020528060005260406000206000915090508060000154908060010160009054906101000a900473ffffffffffffffffffffffffffffffffffffffff16908060020160009054906101000a900473ffffffffffffffffffffffffffffffffffffffff1690806003018054611bcf906149cb565b80601f0160208091040260200160405190810160405280929190818152602001828054611bfb906149cb565b8015611c485780601f10611c1d57610100808354040283529160200191611c48565b820191906000526020600020905b815481529060010190602001808311611c2b57829003601f168201915b5050505050905084565b611c5a611a61565b15611c9a576040517f08c379a0000000000000000000000000000000000000000000000000000000008152600401611c9190614539565b60405180910390fd5b60001515600660003373ffffffffffffffffffffffffffffffffffffffff1673ffffffffffffffffffffffffffffffffffffffff16815260200190815260200160002060009054906101000a900460ff16151514611d2d576040517f08c379a0000000000000000000000000000000000000000000000000000000008152600401611d2490614619565b60405180910390fd5b3373ffffffffffffffffffffffffffffffffffffffff166005600083815260200190815260200160002060070160009054906101000a900473ffffffffffffffffffffffffffffffffffffffff1673ffffffffffffffffffffffffffffffffffffffff1614611dd1576040517f08c379a0000000000000000000000000000000000000000000000000000000008152600401611dc8906145f9565b60405180910390fd5b60006005600083815260200190815260200160002060070160146101000a81548160ff021916908315150217905550611e0a600261382f565b7f3a9eaa6e68e81601b859b65d082cbf189fb7325635f4e1fb5cb1f19dc665508f81604051611e399190614639565b60405180910390a150565b336000600460008373ffffffffffffffffffffffffffffffffffffffff1673ffffffffffffffffffffffffffffffffffffffff16815260200190815260200160002060009054906101000a900460ff16905080611ed6576040517f08c379a0000000000000000000000000000000000000000000000000000000008152600401611ecd906145d9565b60405180910390fd5b611ede6138f4565b5050565b6060611eec611a61565b15611f2c576040517f08c379a0000000000000000000000000000000000000000000000000000000008152600401611f2390614539565b60405180910390fd5b6000611f386003613845565b90506000808267ffffffffffffffff811115611f7d577f4e487b7100000000000000000000000000000000000000000000000000000000600052604160045260246000fd5b604051908082528060200260200182016040528015611fb657816020015b611fa3613aa9565b815260200190600190039081611f9b5790505b50905060005b83811015612235573373ffffffffffffffffffffffffffffffffffffffff1660076000600184611fec91906148b7565b815260200190815260200160002060020160009054906101000a900473ffffffffffffffffffffffffffffffffffffffff1673ffffffffffffffffffffffffffffffffffffffff1614156122225760006007600060018461204d91906148b7565b8152602001908152602001600020600001549050600060076000838152602001908152602001600020905080604051806080016040529081600082015481526020016001820160009054906101000a900473ffffffffffffffffffffffffffffffffffffffff1673ffffffffffffffffffffffffffffffffffffffff1673ffffffffffffffffffffffffffffffffffffffff1681526020016002820160009054906101000a900473ffffffffffffffffffffffffffffffffffffffff1673ffffffffffffffffffffffffffffffffffffffff1673ffffffffffffffffffffffffffffffffffffffff16815260200160038201805461214a906149cb565b80601f0160208091040260200160405190810160405280929190818152602001828054612176906149cb565b80156121c35780601f10612198576101008083540402835291602001916121c3565b820191906000526020600020905b8154815290600101906020018083116121a657829003601f168201915b505050505081525050848681518110612205577f4e487b7100000000000000000000000000000000000000000000000000000000600052603260045260246000fd5b602002602001018190525060018561221d91906148b7565b945050505b808061222d90614a2e565b915050611fbc565b5080935050505090565b60001515600c600083815260200190815260200160002060009054906101000a900460ff161515146122a6576040517f08c379a000000000000000000000000000000000000000000000000000000000815260040161229d906145b9565b60405180910390fd5b6001600c600083815260200190815260200160002060006101000a81548160ff021916908315150217905550600a8190806001815401808255809150506001900390600052602060002001600090919091909150557fe62739fed49de5f6dec72a75ea57f95e1f62f266372cab8e93e8fca8f5ab95048160405161232a9190614639565b60405180910390a150565b600560205280600052604060002060009150905080600001549080600101805461235e906149cb565b80601f016020809104026020016040519081016040528092919081815260200182805461238a906149cb565b80156123d75780601f106123ac576101008083540402835291602001916123d7565b820191906000526020600020905b8154815290600101906020018083116123ba57829003601f168201915b5050505050908060020180546123ec906149cb565b80601f0160208091040260200160405190810160405280929190818152602001828054612418906149cb565b80156124655780601f1061243a57610100808354040283529160200191612465565b820191906000526020600020905b81548152906001019060200180831161244857829003601f168201915b50505050509080600301805461247a906149cb565b80601f01602080910402602001604051908101604052809291908181526020018280546124a6906149cb565b80156124f35780601f106124c8576101008083540402835291602001916124f3565b820191906000526020600020905b8154815290600101906020018083116124d657829003601f168201915b505050505090806004018054612508906149cb565b80601f0160208091040260200160405190810160405280929190818152602001828054612534906149cb565b80156125815780601f1061255657610100808354040283529160200191612581565b820191906000526020600020905b81548152906001019060200180831161256457829003601f168201915b505050505090806005018054612596906149cb565b80601f01602080910402602001604051908101604052809291908181526020018280546125c2906149cb565b801561260f5780601f106125e45761010080835404028352916020019161260f565b820191906000526020600020905b8154815290600101906020018083116125f257829003601f168201915b5050505050908060060154908060070160009054906101000a900473ffffffffffffffffffffffffffffffffffffffff16908060070160149054906101000a900460ff16905089565b612660611a61565b156126a0576040517f08c379a000000000000000000000000000000000000000000000000000000000815260040161269790614539565b60405180910390fd5b60001515600660003373ffffffffffffffffffffffffffffffffffffffff1673ffffffffffffffffffffffffffffffffffffffff16815260200190815260200160002060009054906101000a900460ff16151514612733576040517f08c379a000000000000000000000000000000000000000000000000000000000815260040161272a90614619565b60405180910390fd5b3373ffffffffffffffffffffffffffffffffffffffff166005600083815260200190815260200160002060070160009054906101000a900473ffffffffffffffffffffffffffffffffffffffff1673ffffffffffffffffffffffffffffffffffffffff16146127d7576040517f08c379a00000000000000000000000000000000000000000000000000000000081526004016127ce906145f9565b60405180910390fd5b60001515600c600083815260200190815260200160002060009054906101000a900460ff1615151461283e576040517f08c379a000000000000000000000000000000000000000000000000000000000815260040161283590614579565b60405180910390fd5b60016005600083815260200190815260200160002060070160146101000a81548160ff021916908315150217905550612877600161382f565b7f211c9fd4b950d899ffbafc9f17e0ea27aec103b4381f4e094ba54b34af3f7304816040516128a69190614639565b60405180910390a150565b600a81815481106128c157600080fd5b906000526020600020016000915090505481565b600c6020528060005260406000206000915054906101000a900460ff1681565b60606128ff611a61565b1561293f576040517f08c379a000000000000000000000000000000000000000000000000000000000815260040161293690614539565b60405180910390fd5b60001515600660003373ffffffffffffffffffffffffffffffffffffffff1673ffffffffffffffffffffffffffffffffffffffff16815260200190815260200160002060009054906101000a900460ff161515146129d2576040517f08c379a00000000000000000000000000000000000000000000000000000000081526004016129c990614619565b60405180910390fd5b60006129de6001613845565b905060006129ec6002613845565b6129f66001613845565b612a00919061490d565b90506000808267ffffffffffffffff811115612a45577f4e487b7100000000000000000000000000000000000000000000000000000000600052604160045260246000fd5b604051908082528060200260200182016040528015612a7e57816020015b612a6b613a45565b815260200190600190039081612a635790505b50905060005b84811015612edb576001151560056000600184612aa191906148b7565b815260200190815260200160002060070160149054906101000a900460ff1615151415612ec857600060056000600184612adb91906148b7565b81526020019081526020016000206000015490506000600560008381526020019081526020016000209050806040518061012001604052908160008201548152602001600182018054612b2d906149cb565b80601f0160208091040260200160405190810160405280929190818152602001828054612b59906149cb565b8015612ba65780601f10612b7b57610100808354040283529160200191612ba6565b820191906000526020600020905b815481529060010190602001808311612b8957829003601f168201915b50505050508152602001600282018054612bbf906149cb565b80601f0160208091040260200160405190810160405280929190818152602001828054612beb906149cb565b8015612c385780601f10612c0d57610100808354040283529160200191612c38565b820191906000526020600020905b815481529060010190602001808311612c1b57829003601f168201915b50505050508152602001600382018054612c51906149cb565b80601f0160208091040260200160405190810160405280929190818152602001828054612c7d906149cb565b8015612cca5780601f10612c9f57610100808354040283529160200191612cca565b820191906000526020600020905b815481529060010190602001808311612cad57829003601f168201915b50505050508152602001600482018054612ce3906149cb565b80601f0160208091040260200160405190810160405280929190818152602001828054612d0f906149cb565b8015612d5c5780601f10612d3157610100808354040283529160200191612d5c565b820191906000526020600020905b815481529060010190602001808311612d3f57829003601f168201915b50505050508152602001600582018054612d75906149cb565b80601f0160208091040260200160405190810160405280929190818152602001828054612da1906149cb565b8015612dee5780601f10612dc357610100808354040283529160200191612dee565b820191906000526020600020905b815481529060010190602001808311612dd157829003601f168201915b50505050508152602001600682015481526020016007820160009054906101000a900473ffffffffffffffffffffffffffffffffffffffff1673ffffffffffffffffffffffffffffffffffffffff1673ffffffffffffffffffffffffffffffffffffffff1681526020016007820160149054906101000a900460ff161515151581525050848681518110612eab577f4e487b7100000000000000000000000000000000000000000000000000000000600052603260045260246000fd5b6020026020010181905250600185612ec391906148b7565b945050505b8080612ed390614a2e565b915050612a84565b508094505050505090565b60046020528060005260406000206000915054906101000a900460ff1681565b612f0e611a61565b15612f4e576040517f08c379a0000000000000000000000000000000000000000000000000000000008152600401612f4590614539565b60405180910390fd5b336000600460008373ffffffffffffffffffffffffffffffffffffffff1673ffffffffffffffffffffffffffffffffffffffff16815260200190815260200160002060009054906101000a900460ff16905080612fe0576040517f08c379a0000000000000000000000000000000000000000000000000000000008152600401612fd7906145d9565b60405180910390fd5b6001600460008573ffffffffffffffffffffffffffffffffffffffff1673ffffffffffffffffffffffffffffffffffffffff16815260200190815260200160002060006101000a81548160ff0219169083151502179055507fb5dd25a9cfca5e08f42d8aa38af875754ee83968a096a48442d6af229d64de6533846040516130699291906143af565b60405180910390a1505050565b6060336000600460008373ffffffffffffffffffffffffffffffffffffffff1673ffffffffffffffffffffffffffffffffffffffff16815260200190815260200160002060009054906101000a900460ff1690508061310a576040517f08c379a0000000000000000000000000000000000000000000000000000000008152600401613101906145d9565b60405180910390fd5b600880548060200260200160405190810160405280929190818152602001828054801561318c57602002820191906000526020600020905b8160009054906101000a900473ffffffffffffffffffffffffffffffffffffffff1673ffffffffffffffffffffffffffffffffffffffff1681526020019060010190808311613142575b50505050509250505090565b6131a0611a61565b156131e0576040517f08c379a00000000000000000000000000000000000000000000000000000000081526004016131d790614539565b60405180910390fd5b60001515600660003373ffffffffffffffffffffffffffffffffffffffff1673ffffffffffffffffffffffffffffffffffffffff16815260200190815260200160002060009054906101000a900460ff16151514613273576040517f08c379a000000000000000000000000000000000000000000000000000000000815260040161326a90614619565b60405180910390fd5b600086511161328157600080fd5b600084511161328f57600080fd5b600082511161329d57600080fd5b60008351116132ab57600080fd5b600073ffffffffffffffffffffffffffffffffffffffff163373ffffffffffffffffffffffffffffffffffffffff1614156132e557600080fd5b60008551116132f357600080fd5b6132fd600161382f565b60006133096001613845565b90506040518061012001604052808281526020018881526020018781526020018681526020018581526020018481526020014281526020013373ffffffffffffffffffffffffffffffffffffffff168152602001600015158152506005600083815260200190815260200160002060008201518160000155602082015181600101908051906020019061339d9291906139bf565b5060408201518160020190805190602001906133ba9291906139bf565b5060608201518160030190805190602001906133d79291906139bf565b5060808201518160040190805190602001906133f49291906139bf565b5060a08201518160050190805190602001906134119291906139bf565b5060c0820151816006015560e08201518160070160006101000a81548173ffffffffffffffffffffffffffffffffffffffff021916908373ffffffffffffffffffffffffffffffffffffffff1602179055506101008201518160070160146101000a81548160ff0219169083151502179055509050507f15685dbf79e7181ae33d4610b737556e08e88cd73cd97d994292e1699d09d0f381888888888842338a6040516134c6999897969594939291906146a0565b60405180910390a150505050505050565b6134df611a61565b1561351f576040517f08c379a000000000000000000000000000000000000000000000000000000000815260040161351690614539565b60405180910390fd5b600460003373ffffffffffffffffffffffffffffffffffffffff1673ffffffffffffffffffffffffffffffffffffffff16815260200190815260200160002060009054906101000a900460ff166135ab576040517f08c379a00000000000000000000000000000000000000000000000000000000081526004016135a2906144b9565b60405180910390fd5b60006005600083815260200190815260200160002060070160146101000a81548160ff0219169083151502179055506000600b6000838152602001908152602001600020549050600a6001600a80549050613606919061490d565b8154811061363d577f4e487b7100000000000000000000000000000000000000000000000000000000600052603260045260246000fd5b9060005260206000200154600a8281548110613682577f4e487b7100000000000000000000000000000000000000000000000000000000600052603260045260246000fd5b9060005260206000200181905550600a8054806136c8577f4e487b7100000000000000000000000000000000000000000000000000000000600052603160045260246000fd5b60019003818190600052602060002001600090559055600a6001600a805490506136f2919061490d565b81548110613729577f4e487b7100000000000000000000000000000000000000000000000000000000600052603260045260246000fd5b9060005260206000200154600a828154811061376e577f4e487b7100000000000000000000000000000000000000000000000000000000600052603260045260246000fd5b9060005260206000200181905550600a8054806137b4577f4e487b7100000000000000000000000000000000000000000000000000000000600052603160045260246000fd5b600190038181906000526020600020016000905590556137d4600261382f565b7f5aa7628e41ea0589cf8d4c2c9c02537d47756ceb857899db726f2d9161bf8648826040516138039190614639565b60405180910390a15050565b60066020528060005260406000206000915054906101000a900460ff1681565b6001816000016000828254019250508190555050565b600081600001549050919050565b61385b611a61565b61389a576040517f08c379a0000000000000000000000000000000000000000000000000000000008152600401613891906144d9565b60405180910390fd5b60008060006101000a81548160ff0219169083151502179055507f5db9ee0a495bf2e6ff9c91a7834c1ba4fdd244a5e8aa4e537bd38aeae4b073aa6138dd613996565b6040516138ea9190614394565b60405180910390a1565b6138fc611a61565b1561393c576040517f08c379a000000000000000000000000000000000000000000000000000000000815260040161393390614539565b60405180910390fd5b60016000806101000a81548160ff0219169083151502179055507f62e78cea01bee320cd4e420270b5ea74000d11b0c9f74754ebdbfc544b05a25861397f613996565b60405161398c9190614394565b60405180910390a1565b600033905090565b50805460008255906000526020600020908101906139bc9190613afd565b50565b8280546139cb906149cb565b90600052602060002090601f0160209004810192826139ed5760008555613a34565b82601f10613a0657805160ff1916838001178555613a34565b82800160010185558215613a34579182015b82811115613a33578251825591602001919060010190613a18565b5b509050613a419190613afd565b5090565b60405180610120016040528060008152602001606081526020016060815260200160608152602001606081526020016060815260200160008152602001600073ffffffffffffffffffffffffffffffffffffffff1681526020016000151581525090565b604051806080016040528060008152602001600073ffffffffffffffffffffffffffffffffffffffff168152602001600073ffffffffffffffffffffffffffffffffffffffff168152602001606081525090565b5b80821115613b16576000816000905550600101613afe565b5090565b6000613b2d613b2884614775565b614750565b905082815260208101848484011115613b4557600080fd5b613b50848285614989565b509392505050565b600081359050613b6781614de5565b92915050565b60008083601f840112613b7f57600080fd5b8235905067ffffffffffffffff811115613b9857600080fd5b602083019150836020820283011115613bb057600080fd5b9250929050565b600081359050613bc681614dfc565b92915050565b600082601f830112613bdd57600080fd5b8135613bed848260208601613b1a565b91505092915050565b600081359050613c0581614e13565b92915050565b600060208284031215613c1d57600080fd5b6000613c2b84828501613b58565b91505092915050565b60008060008060008060c08789031215613c4d57600080fd5b600087013567ffffffffffffffff811115613c6757600080fd5b613c7389828a01613bcc565b965050602087013567ffffffffffffffff811115613c9057600080fd5b613c9c89828a01613bcc565b955050604087013567ffffffffffffffff811115613cb957600080fd5b613cc589828a01613bcc565b945050606087013567ffffffffffffffff811115613ce257600080fd5b613cee89828a01613bcc565b935050608087013567ffffffffffffffff811115613d0b57600080fd5b613d1789828a01613bcc565b92505060a0613d2889828a01613bb7565b9150509295509295509295565b600060208284031215613d4757600080fd5b6000613d5584828501613bf6565b91505092915050565b60008060008060608587031215613d7457600080fd5b6000613d8287828801613bf6565b945050602085013567ffffffffffffffff811115613d9f57600080fd5b613dab87828801613b6d565b9350935050604085013567ffffffffffffffff811115613dca57600080fd5b613dd687828801613bcc565b91505092959194509250565b6000613dee8383613e3a565b60208301905092915050565b6000613e068383614232565b905092915050565b6000613e1a8383614313565b905092915050565b6000613e2e8383614376565b60208301905092915050565b613e4381614941565b82525050565b613e5281614941565b82525050565b6000613e63826147e6565b613e6d8185614851565b9350613e78836147a6565b8060005b83811015613ea9578151613e908882613de2565b9750613e9b8361481d565b925050600181019050613e7c565b5085935050505092915050565b6000613ec1826147f1565b613ecb8185614862565b935083602082028501613edd856147b6565b8060005b85811015613f195784840389528151613efa8582613dfa565b9450613f058361482a565b925060208a01995050600181019050613ee1565b50829750879550505050505092915050565b6000613f36826147fc565b613f408185614873565b935083602082028501613f52856147c6565b8060005b85811015613f8e5784840389528151613f6f8582613e0e565b9450613f7a83614837565b925060208a01995050600181019050613f56565b50829750879550505050505092915050565b6000613fab82614807565b613fb58185614884565b9350613fc0836147d6565b8060005b83811015613ff1578151613fd88882613e22565b9750613fe383614844565b925050600181019050613fc4565b5085935050505092915050565b61400781614953565b82525050565b61401681614953565b82525050565b600061402782614812565b6140318185614895565b9350614041818560208601614998565b61404a81614b04565b840191505092915050565b600061406082614812565b61406a81856148a6565b935061407a818560208601614998565b61408381614b04565b840191505092915050565b600061409b6021836148a6565b91506140a682614b15565b604082019050919050565b60006140be6014836148a6565b91506140c982614b64565b602082019050919050565b60006140e16014836148a6565b91506140ec82614b8d565b602082019050919050565b6000614104601f836148a6565b915061410f82614bb6565b602082019050919050565b60006141276010836148a6565b915061413282614bdf565b602082019050919050565b600061414a601c836148a6565b915061415582614c08565b602082019050919050565b600061416d6043836148a6565b915061417882614c31565b606082019050919050565b6000614190602a836148a6565b915061419b82614ca6565b604082019050919050565b60006141b3601f836148a6565b91506141be82614cf5565b602082019050919050565b60006141d6601c836148a6565b91506141e182614d1e565b602082019050919050565b60006141f96025836148a6565b915061420482614d47565b604082019050919050565b600061421c6022836148a6565b915061422782614d96565b604082019050919050565b60006101208301600083015161424b6000860182614376565b5060208301518482036020860152614263828261401c565b9150506040830151848203604086015261427d828261401c565b91505060608301518482036060860152614297828261401c565b915050608083015184820360808601526142b1828261401c565b91505060a083015184820360a08601526142cb828261401c565b91505060c08301516142e060c0860182614376565b5060e08301516142f360e0860182613e3a565b50610100830151614308610100860182613ffe565b508091505092915050565b600060808301600083015161432b6000860182614376565b50602083015161433e6020860182613e3a565b5060408301516143516040860182613e3a565b5060608301518482036060860152614369828261401c565b9150508091505092915050565b61437f8161497f565b82525050565b61438e8161497f565b82525050565b60006020820190506143a96000830184613e49565b92915050565b60006040820190506143c46000830185613e49565b6143d16020830184613e49565b9392505050565b60006060820190506143ed6000830186613e49565b6143fa6020830185613e49565b818103604083015261440c8184614055565b9050949350505050565b600060208201905081810360008301526144308184613e58565b905092915050565b600060208201905081810360008301526144528184613eb6565b905092915050565b600060208201905081810360008301526144748184613f2b565b905092915050565b600060208201905081810360008301526144968184613fa0565b905092915050565b60006020820190506144b3600083018461400d565b92915050565b600060208201905081810360008301526144d28161408e565b9050919050565b600060208201905081810360008301526144f2816140b1565b9050919050565b60006020820190508181036000830152614512816140d4565b9050919050565b60006020820190508181036000830152614532816140f7565b9050919050565b600060208201905081810360008301526145528161411a565b9050919050565b600060208201905081810360008301526145728161413d565b9050919050565b6000602082019050818103600083015261459281614160565b9050919050565b600060208201905081810360008301526145b281614183565b9050919050565b600060208201905081810360008301526145d2816141a6565b9050919050565b600060208201905081810360008301526145f2816141c9565b9050919050565b60006020820190508181036000830152614612816141ec565b9050919050565b600060208201905081810360008301526146328161420f565b9050919050565b600060208201905061464e6000830184614385565b92915050565b60006080820190506146696000830187614385565b6146766020830186613e49565b6146836040830185613e49565b81810360608301526146958184614055565b905095945050505050565b6000610120820190506146b6600083018c614385565b81810360208301526146c8818b614055565b905081810360408301526146dc818a614055565b905081810360608301526146f08189614055565b905081810360808301526147048188614055565b905081810360a08301526147188187614055565b905061472760c0830186614385565b61473460e0830185613e49565b61474261010083018461400d565b9a9950505050505050505050565b600061475a61476b565b905061476682826149fd565b919050565b6000604051905090565b600067ffffffffffffffff8211156147905761478f614ad5565b5b61479982614b04565b9050602081019050919050565b6000819050602082019050919050565b6000819050602082019050919050565b6000819050602082019050919050565b6000819050602082019050919050565b600081519050919050565b600081519050919050565b600081519050919050565b600081519050919050565b600081519050919050565b6000602082019050919050565b6000602082019050919050565b6000602082019050919050565b6000602082019050919050565b600082825260208201905092915050565b600082825260208201905092915050565b600082825260208201905092915050565b600082825260208201905092915050565b600082825260208201905092915050565b600082825260208201905092915050565b60006148c28261497f565b91506148cd8361497f565b9250827fffffffffffffffffffffffffffffffffffffffffffffffffffffffffffffffff0382111561490257614901614a77565b5b828201905092915050565b60006149188261497f565b91506149238361497f565b92508282101561493657614935614a77565b5b828203905092915050565b600061494c8261495f565b9050919050565b60008115159050919050565b600073ffffffffffffffffffffffffffffffffffffffff82169050919050565b6000819050919050565b82818337600083830152505050565b60005b838110156149b657808201518184015260208101905061499b565b838111156149c5576000848401525b50505050565b600060028204905060018216806149e357607f821691505b602082108114156149f7576149f6614aa6565b5b50919050565b614a0682614b04565b810181811067ffffffffffffffff82111715614a2557614a24614ad5565b5b80604052505050565b6000614a398261497f565b91507fffffffffffffffffffffffffffffffffffffffffffffffffffffffffffffffff821415614a6c57614a6b614a77565b5b600182019050919050565b7f4e487b7100000000000000000000000000000000000000000000000000000000600052601160045260246000fd5b7f4e487b7100000000000000000000000000000000000000000000000000000000600052602260045260246000fd5b7f4e487b7100000000000000000000000000000000000000000000000000000000600052604160045260246000fd5b6000601f19601f8301169050919050565b7f6f6e6c792061646d696e2063616e2063616c6c20746869732066756e6374696f60008201527f6e00000000000000000000000000000000000000000000000000000000000000602082015250565b7f5061757361626c653a206e6f7420706175736564000000000000000000000000600082015250565b7f796f752068617665206265656e2062616e6e6564000000000000000000000000600082015250565b7f6f6e6c792066696c65206f776e65722063616e2073686172652066696c657300600082015250565b7f5061757361626c653a2070617573656400000000000000000000000000000000600082015250565b7f706c6561736520656e74657220612076616c6964206164647265737300000000600082015250565b7f46696c6520686173206265656e20626c61636b6c697374656420666f7220766960008201527f6f6c6174696f6e2c20616e642063616e6e6f74206265206d616465207075626c60208201527f69632e0000000000000000000000000000000000000000000000000000000000604082015250565b7f796f752063616e6e6f742073686172652066696c657320746f20796f7572206f60008201527f776e206164647265737300000000000000000000000000000000000000000000602082015250565b7f46696c6520686173206265656e207265706f72746564206561726c6965722e00600082015250565b7f4f6e6c79204d6f64657261746f72732048617665204163636573732100000000600082015250565b7f796f752063616e206f6e6c79206d616e6970756c61746520796f7572206f776e60008201527f2066696c65000000000000000000000000000000000000000000000000000000602082015250565b7f416464726573732069732063757272656e746c7920426c61636b6c697374656460008201527f2e2e000000000000000000000000000000000000000000000000000000000000602082015250565b614dee81614941565b8114614df957600080fd5b50565b614e0581614953565b8114614e1057600080fd5b50565b614e1c8161497f565b8114614e2757600080fd5b5056fea2646970667358221220a0903a83140dd2ab05024fc859605c73694094867f682bed5460164faa31b2d964736f6c63430008040033",
    "linkReferences": {},
    "deployedLinkReferences": {}
}